:020000022000DC
:1070000000000420F97202002173020023730200C1
:10701000257302002773020029730200000000009C
:107020000000000000000000000000002B730200C0
:107030002D730200000000002F7302003173020064
:10704000C1C1020033730200B5AE02003373020007
:107050003373020033730200B5A9020033730200D8
:107060003373020033730200337302003373020080
:107070003373020033730200337302003373020070
:1070800033730200FD8D020033730200337302007C
:1070900033730200337302009DE702003373020072
:1070A0003373020033730200337302003373020040
:1070B0003373020033730200000000000000000080
:1070C0003373020033730200337302003373020020
:1070D000337302003373020033730200C5FB0200F6
:1070E00033730200337302003373020000000000A8
:1070F0000000000033730200000000003373020040
:10710000000000000000000000000000000000007F
:10711000000000000000000000000000000000006F
:10712000000000000000000000000000000000005F
:10713000000000000000000000000000000000004F
:10714000000000000000000000000000000000003F
:10715000000000000000000000000000000000002F
:10716000000000000000000000000000000000001F
:10717000000000000000000000000000000000000F
:1071800000000000000000000000000000000000FF
:1071900000000000000000000000000000000000EF
:1071A00000000000000000000000000000000000DF
:1071B00000000000000000000000000000000000CF
:1071C00000000000000000000000000000000000BF
:1071D00000000000000000000000000000000000AF
:1071E000000000000000000000000000000000009F
:1071F000000000000000000000000000000000008F
:107200000348044B834202D0034B03B11847704735
:107210006837002068370020000000000548064954
:107220000B1AD90F01EBA301491002D0034B03B194
:1072300018477047683700206837002000000000BA
:1072400010B5064C237843B9FFF7DAFF044B13B1AE
:107250000448AFF300800123237010BD683700207D
:10726000000000004457030008B5044B1BB104495B
:107270000448AFF30080BDE80840CFE700000000FD
:107280006C37002044570300A3F5803A704700BFD5
:10729000154B002B08BF114B9D46FFF7F5FF002152
:1072A0008B460F461148124A121A0CF07BFC0C4B0D
:1072B000002B00D098470B4B002B00D098470020A4
:1072C000002104000D000B480CF04AFB0CF07CFB85
:1072D0002000290005F028F90CF048FB0000080008
:1072E00000000000000000000000042068370020BB
:1072F000144B0020953903000649074A074B9B1A97
:1073000003DD043BC858D050FBDC02F057FDFFF70B
:10731000BFFF0000B4580300D830002068370020B9
:10732000FEE7FEE7FEE7FEE7FEE7FEE7FEE7FEE735
:10733000FEE7FEE7F0B595B000241D460E46084670
:10734000174602F001FB304623460822099505A99D
:107350001A9D08970D950A948DF82C400C9402F014
:1073600057FB9DF814308DF81140DDE9061003F04D
:107370000302012ACDE9020128D0022A04D03046B6
:1073800002F0E6FA15B0F0BDBDF81650C3F3C20323
:107390008DF81030C5F389150827082D2C4628BF15
:1073A00008243B4622460EA9304602F031FB2D1B35
:1073B000214608AB02AA0EA8274400F09FFE002D2C
:1073C000EBD1304602F0C4FA15B0F0BDBDF8147030
:1073D000059DC7F38312C3F3C2040EA93046920081
:1073E00008238DF81040C7F3831702F011FBC5F393
:1073F000952508AB3A4628460EA9009302AB00F04B
:1074000005FE304602F0A4FA15B0F0BD014B012292
:107410001A707047C8370020704700BF00B583B0AE
:10742000044B0093044A4023FFF784FF03B05DF848
:1074300004FB00BF3D7402008837002038B50E48B9
:107440000E4D03780E4CEB5C00252570D2B253B183
:10745000043004F0B1FA58B90A4B1B7813B1237801
:10746000002BFCD038BD0C3003F0BEFF0028F3D059
:1074700001F0A4F8F0E700BFD8300020384A00201F
:10748000C8370020843700202DE9704319481A4A74
:107490000378D35C88B02BB3043004F0D5F9174DD2
:1074A0000FCD6C460FC495E80F004FF0EB7684E8E3
:1074B0000F004FF006084FF0FF394FF0FF344FF048
:1074C000FF350C48069600226946CDE90089CDE9D2
:1074D000024502F0A3FF48B9094B00221A7008B018
:1074E000BDE870830C3003F0F9FED8E701F066F8D0
:1074F000F2E700BFD8300020384A00206C44030077
:1075000084370020F0B5154D0FCD89B06C460FC4FF
:1075100095E80F004FF0EB7C84E80F0006264FF053
:10752000FF374FF0FF344FF0FF350D4A0D48CDF8CF
:1075300018C06946CDE90067CDE9024502F06EFF4B
:1075400020B9094B01221A7009B0F0BD01F036F8DC
:10755000054B01221A7009B0F0BD00BF6C44030056
:107560000D740200D83000208437002008B5FFF7E2
:10757000C9FF0448042100F0C7FC034B01225A71E3
:1075800008BD00BF9C580300EC300020064B0748A4
:1075900010B500221A7002F06DF9044610B90448C3
:1075A00002F094FB204610BD9C3800204058030098
:1075B000C444030099B10E4B0E495B1ADB0815D089
:1075C00030B400220C4D02E0013293420BD035F86A
:1075D00022408442F8D151F8320030BC704705494E
:1075E00051F830007047002030BC70471846704793
:1075F000405803009857030068370020094B0139B1
:1076000003EBC00003290BD8DFE801F004020806F1
:107610000420704702207047407970470079704716
:1076200000207047985703002DE9F0438C4CD4E9B3
:1076300001239A4285B060D00023C4F81834BFF308
:107640004F8FA568EAB2D31C04EB830114F82330F2
:10765000580718D566680B7803F00303012B42D056
:10766000022B03D14B88023505EB9315EAB2D4F80F
:107670001804D31C04EB830128B9AE4239D914F89D
:1076800023305B07E7D404EB82026B1CD2680192C3
:10769000DBB204EB830302F00302DB680293022AED
:1076A00005F102062DD0012A00F08D80D4F8105487
:1076B0003DB12B6828469B689847EB681D68002DF4
:1076C000F7D16848684B6949C01AC008000440F007
:1076D000020000F0D1F8D4E90130C01A18BF01202F
:1076E00005B0BDE8F0830B880235C3F383131D4456
:1076F000BCE7A66005B0BDE8F083002005B0BDE89A
:10770000F083BDF806305A48C3F389184546502D1A
:1077100028BF502565F38F1305F10801ADF8063039
:1077200002F0AAF807460028C0D002F00DF90023A5
:1077300001A90822384602F037F9F343DBB20133DE
:10774000B5EB830F4FEA8309F1B277D9A5EB0905B1
:10775000033104EB810108234A463846EDB202F0BA
:1077600023F944492A4609F10803384602F01CF976
:1077700008F1030806EB9806D4F81834002B6AD1F8
:10778000D4F8105465B1EB685A7928463946002A76
:107790005DD02B681B689847EB681D68002DF2D1FF
:1077A000384602F0D5F800230DF103008DF80330C0
:1077B00001F090F9D4F8183403B9A6609DF80300DD
:1077C00001F0AEF987E7BDF804302948C3F383120E
:1077D000062A28BF0622911C62F389138900ADF89E
:1077E000043002F049F8074600283FF45FAF02F08A
:1077F000ABF80023082201A9384602F0D5F8BDF8FD
:10780000043013F4707FB7D06FF00108A8EB0508BF
:107810000825F1B203312B46042204EB81013846DE
:1078200002F0C2F8BDF80420013608EB0603C2F3EB
:1078300083129A4205F10405EBD89DE703312A46ED
:1078400004EB81010823384602F0AEF890E71D688A
:10785000002D98D1A4E7384602F07AF83BE700BF44
:107860009C380020C857030098570300AC4403001D
:1078700040580300A83800202DE9F04F5E4C87B037
:10788000002306460DF10B008DF80B300F4601F07A
:1078900021F9D4E9015303F580735B1B012B7DD8DB
:1078A00004F21C4804F5836A04F214491AE0BDF896
:1078B0000E30C3F389130333090C0BEB930B4846CB
:1078C000019101F0BFFB0199002839D04046C4F86E
:1078D00008B001F07BFBD4E9013202F58072D21AC4
:1078E000012A5CD80121404601F070FB504601F0AE
:1078F00099FB484601F096FBA368DAB2D11C04EB71
:10790000810014F8211001F0040C490728D404EB7D
:107910008202591CD2680392C9B204EB810102F0C1
:107920000302012AC96803F1020B30D0022ABED03B
:1079300000214846019101F085FB01990028C5D13D
:107940004046C6E743880EEB9313DAB2D11C04EB32
:10795000810014F8211001F0040CBCF1000FD6D006
:10796000017801F0030101290BD0022903F1020E75
:1079700002F10301E6D004EB8100BCF1000FEFD16E
:10798000C5E702880233C2F383121344DDE7BDF872
:107990000C30C3F38313090C9B4490E72B46DAB2F7
:1079A0000332023305219DF80B0044F82210636076
:1079B00001F0B6F80021114801F0DEFA80F3100062
:1079C000F1006B1C01F03801DBB2EDB204EB830374
:1079D00041F001010004033540EA164641EA8727D9
:1079E000DE6044F8257023781BB1FFF71DFE0028E8
:1079F000FBD107B0BDE8F08F9C380020B83C0020D8
:107A00002DE9F04F634C87B0002306460DF10B00C3
:107A10008DF80B300F46904601F05CF8D4E9015325
:107A200003F580735B1B022B7FD804F21C4904F51D
:107A3000836B04F2144A1BE0BDF80E20C2F38912D6
:107A40000332090C03EB92035046CDE9003101F0FB
:107A5000F9FA019900283AD0009BA360484601F04A
:107A6000B5FAD4E9013202F58072D21A022A5DD841
:107A70000121484601F0AAFA584601F0D3FA5046CF
:107A800001F0D0FAA368DAB2D11C04EB810014F83B
:107A9000211001F0040C490729D404EB8202591C7F
:107AA000D2680392C9B204EB810102F00302012AF9
:107AB000C96803F1020331D0022ABDD0002150462B
:107AC000CDE9003101F0BEFA01990028C4D1484641
:107AD000C5E743880EEB9313DAB2D11C04EB8100A7
:107AE00014F8211001F0040CBCF1000FD5D001787E
:107AF00001F0030101290BD0022903F1020E02F16A
:107B00000301E6D004EB8100BCF1000FEFD1C4E724
:107B100002880233C2F383121344DDE7BDF80C2060
:107B2000C2F38312090C13448EE72B46DAB20332F8
:107B3000033345219DF80B0044F82210636000F0E8
:107B4000EFFFAB1CDBB204EB830300211248C3F848
:107B50000C8001F011FA80F31000F1006B1C01F0B1
:107B60003801DBB2EDB204EB830341F041010004C4
:107B7000033540EA164641EA8727DE6044F825705F
:107B800023781BB1FFF750FD0028FBD107B0BDE8FB
:107B9000F08F00BF9C380020B83C00202DE9F04F4A
:107BA000684C89B0002506460DF113001F468DF87C
:107BB00013508846039200F08DFFD4E9015303F57A
:107BC00080735B1B032B00F2828004F21C4904F5D6
:107BD000836B04F2144A1BE0BDF81620C2F389122D
:107BE0000332090C03EB92035046CDE9013101F059
:107BF00029FA029900283BD0019BA360484601F076
:107C0000E5F9D4E9013202F58072D21A032A5FD86D
:107C10000121484601F0DAF9584601F003FA5046CE
:107C200001F000FAA368DAB2D11C04EB810014F869
:107C300021C01CF0040F0CF0040128D104EB8202D7
:107C4000591CD2680592C9B204EB810102F003020B
:107C5000012AC96803F1020332D0022ABCD00021F4
:107C60005046CDE9013101F0EDF902990028C3D168
:107C70004846C4E743880EEB9313DAB2D11C04EBF9
:107C8000810014F8211001F004010029D6D090F8E9
:107C900000C00CF0030CBCF1010F0BD0BCF1020FC3
:107CA00003F1020E02F1030CE4D004EB8C00002976
:107CB000EDD1C3E702880233C2F383121344DCE739
:107CC000BDF81420C2F38312090C13448CE72B4631
:107CD000DAB20332043385219DF8130044F82210F0
:107CE000636000F01DFFAA1CEB1CDBB2D2B204EBF8
:107CF000830C04EB8202039B1348D3600021CCF871
:107D00000C7001F039F980F31000F1006B1C01F0E8
:107D10003801DBB2EDB204EB830341F081010004D2
:107D2000033540EA164641EA8821DE6044F8251012
:107D300023781BB1FFF778FC0028FBD109B0BDE820
:107D4000F08F00BF9C380020B83C00202DE9F04F98
:107D50006B4C89B0002506460DF113001F468DF8C7
:107D600013508846039200F0B5FED4E9015303F5A1
:107D700080735B1B042B00F2828004F21C4904F523
:107D8000836B04F2144A1BE0BDF81620C2F389127B
:107D90000332090C03EB92035046CDE9013101F0A7
:107DA00051F9029900283BD0019BA360484601F09D
:107DB0000DF9D4E9013202F58072D21A042A5FD893
:107DC0000121484601F002F9584601F02BF95046CE
:107DD00001F028F9A368DAB2D11C04EB810014F891
:107DE00021C01CF0040F0CF0040128D104EB820226
:107DF000591CD2680592C9B204EB810102F003025A
:107E0000012AC96803F1020332D0022ABCD0002142
:107E10005046CDE9013101F015F902990028C3D18E
:107E20004846C4E743880EEB9313DAB2D11C04EB47
:107E3000810014F8211001F004010029D6D090F837
:107E400000C00CF0030CBCF1010F0BD0BCF1020F11
:107E500003F1020E02F1030CE4D004EB8C000029C4
:107E6000EDD1C3E702880233C2F383121344DCE787
:107E7000BDF81420C2F38312090C13448CE72B467F
:107E8000DAB203320533C5219DF8130044F82210FD
:107E9000636000F045FEA81CEA1C2B1DC0B2DBB2DB
:107EA00004EB8000D2B204EB830C04EB8202039B50
:107EB000C3600021129B1348D760CCF80C3001F04E
:107EC0005BF880F31000F1006B1C01F03801DBB2AD
:107ED000EDB204EB830341F0C1010004033540EA35
:107EE000164641EA8821DE6044F8251023781BB14C
:107EF000FFF79AFB0028FBD109B0BDE8F08F00BF67
:107F00009C380020B83C002030B4154DD5F8101432
:107F10000446002071B10B4601E01B6853B1DB68D9
:107F20001A798242F9D101300A28F3D14FF0FF309B
:107F300030BC7047E3681871D5F810344BB1DA687B
:107F4000E36812681A60D5F81034DB681C6030BC36
:107F50007047C5F81044E268136030BC704700BF3A
:107F60009C38002038B5084BD3F8104401251D700B
:107F70004CB1E3685D71236820465B689847E3680D
:107F80001C68002CF5D138BD9C38002030B5C38862
:107F900085B004460D461BBB217A05291ED0627AA6
:107FA00082B9134AA08852F8212003920021FFF7DA
:107FB00001FB039A0F490346284605B0BDE830404F
:107FC00001F0BCB8A088FFF719FB0B4B0B4953F825
:107FD0002020284601F0B2F8217AE2E705B030BD52
:107FE000074A00920749084A284601F0A7F8D3E754
:107FF0009C450300FC44030078450300F84403005B
:10800000F0440300D8440300D04403002DE9F043BA
:1080100085B04FF0000C0C9C814694F80C8084F8DD
:108020000CC00E461746184621461D46FFF7AEFF08
:10803000062F09D8DFE807F0042E343B444F1F0019
:108040004946204601F07AF82B7A052B05D06B7A49
:108050005BB92749204601F071F8204601F062F82B
:1080600084F80C8005B0BDE8F083224A22492046FE
:1080700001F064F8EDE7D6E90413F2680393B368FE
:108080000291CDE900324946D6E90023204601F0AD
:1080900055F8D9E732684946204601F04FF8D3E752
:1080A000D6E900234946204601F048F8CCE7B368FA
:1080B0000093D6E900234946204601F03FF8C3E784
:1080C000D6E9023201920093D6E9002349462046C0
:1080D00001F034F8B8E7D6E90321B3680291CDE99D
:1080E00000324946D6E90023204601F027F8ABE7E5
:1080F00008450300F0440300F8440300082900D9B0
:1081000070472DE9F04F9B4683B000241B7B8BF812
:108110000C400D4606465946104690460193DFF83E
:10812000D0902C4FFFF732FF05E0325D013401F0B3
:1081300005F8082C09D0A54239465846F5D84946D5
:10814000013400F0FBFF082CF5D12349DFF8A4909F
:10815000224C234F584600F0F1FF4FF0000A0DE08B
:10816000D15D11F0970F08BF2E22214658460AF123
:10817000010A00F0E3FFBAF1080F10D0554505D908
:1081800016F80A207E2AEBD92E22EEE749465846F9
:108190000AF1010A00F0D2FFBAF1080FEED198F807
:1081A0000830052B02D098F8093063B90D495846BC
:1081B00000F0C4FF584600F0B5FF019B8BF80C306F
:1081C00003B0BDE8F08F084A0849584600F0B6FFF2
:1081D000ECE700BF0C450300184503001C450300F5
:1081E0003D56030008450300F0440300F844030033
:1081F000144503000445030038B5174B1D783DB303
:10820000164B1968C0B200230C4604E00133AB42A0
:1082100004F108041CD011F833209042F6D102F08A
:10822000B9FB6378A3F10103B3FA83F35B098342DB
:1082300000D038BD0A4BD3E900231343F9D1094BD1
:10824000094819680022BDE83840490800F0DABB47
:1082500000231B78FFDE00BF543D0020A83D002016
:10826000803D0020583D0020603D00202DE9F04F6A
:10827000DFF8548298F8003083B0002B00F01981A9
:10828000DFF848928C4F8D4E00254FF0010A3C6874
:1082900014F8350002F07EFB04EBC50314F83540FA
:1082A0005B784FEA540C14F0010E16F80C10A3F191
:1082B0000103B3FA83F314BF0A0901F00F025B094B
:1082C000042A00F2A080DFE802F0725D3220030091
:1082D000834240F0AB80BEF1000F0CBFF0230F23B0
:1082E00003EA01030CBF03213021194306F80C10E7
:1082F00098F8002001359542C9DBD9E900231343E2
:1083000040F0CD8003B0BDE8F08F83427BD0BEF15A
:10831000000F0CBFF0230F2303EA01030CBF04215D
:108320004021194306F80C1098F80020E2E7834238
:108330006CD1BEF1000F0CBFF0230F2303EA010341
:1083400098F800200CBF03213021194306F80C10C7
:10835000002AD2D0D7F800C00023614603E0934240
:1083600001F10801C6D01CF83300A04203F101035B
:10837000F5D14B68002BBDD020460121984798F8D5
:108380000020B7E7834219BF0020034602232020C4
:10839000BEF1000F0CBFF0220F2201EA020118BF4C
:1083A00003460B4306F80C3098F80020A2E78342FE
:1083B00029D1BEF1000F14BF0F23F02303EA0103FC
:1083C00014BF1021012119430DF107004FF00003E4
:1083D00006F80C108DF8073000F07CFBD9E900326C
:1083E000A4F12001C4F120000AFA01F12AFA00F0F8
:1083F00001430AFA04F4114323439DF80700C9E935
:10840000003100F08DFB98F8002073E7BEF1000FFB
:108410000CBFF0230F2303EA01030CBF012110213D
:10842000194306F80C1098F8002063E7BEF1000F1E
:1084300014BF0F23F02398F80000194006F80C1021
:1084400098B1D7F800C00023624603E0834202F1EE
:1084500008020AD01CF83310A14203F10103F5D140
:10846000536813B10021204698474FF000030DF1E7
:1084700007008DF8073000F02DFBD9E90032A4F198
:108480002001C4F120000AFA01F12AFA00F00143A8
:108490000AFA04F422EA010123EA0403ADE7084BD7
:1084A000084819680022490800F0ACFA03B0BDE89A
:1084B000F08FDFF8189020E7A83D0020883D0020CD
:1084C000583D0020603D0020543D0020803D0020AC
:1084D000092A43D92DE9F04182B0144606460D46DB
:1084E00002F0F0F8002832D0214A2249224B1660CF
:1084F0000D7022481C60002120220BF053FB204B02
:10850000002000216C1EC3E90001E4B245B3DFF88E
:108510007C8006EBC404032702E0A64220D01C4660
:108520009DF80630A57820788DF8047023F00703B5
:10853000424601A98DF806308DF8055002F0CCF8BE
:10854000A4F108030028E8D002B0BDE8F08102F0F1
:1085500061F80028C8D002B0BDE8F081072070475C
:10856000084A0948002100F03FFA02B0BDE8F08156
:10857000A83D0020543D0020583D0020883D0020AB
:10858000803D00206D820200BC450300F98102009D
:1085900070B5084D2B785BB1074E0024336801217C
:1085A00013F8340002F08AF92B780134A342F5D88D
:1085B000002070BD543D0020A83D002000B585B0CE
:1085C0000346002101AA44F20100CDE90111039301
:1085D00000F004F805B05DF804FB00BF10B572B6FA
:1085E000FFF7C0FCFFF720F80028FBD1104B114C1F
:1085F0001149E41AE408240444F00100FFF73CF9AF
:108600000E4B1B68DB0700D500BE0D4944F002008D
:10861000FFF732F9BFF34F8F0A490B4BCA6802F4D8
:10862000E0621343CB60BFF34F8F00BFFDE700BF95
:1086300098570300C8570300C0450300F0ED00E061
:10864000CC45030000ED00E00400FA05D0E9022368
:10865000D1E90201994208BF90422CBF01200020BD
:10866000704700BF2DE9F04F2DED028B85B0064617
:1086700000F082FB40B1B54AD2E9003113F18073BA
:1086800041F10001C2E900310021304600F090FBC9
:10869000AF4C60B1236853B1AE4B25681B7823B152
:1086A0001DB12B7F002B40F01C8100232360012192
:1086B000304600F07DFB002840F0F680A64803A974
:1086C00000F0FCFB78B3A54DDFF88882A24F0BE0E9
:1086D000002B00F0CD8003A9384600F01FFC03A951
:1086E000384600F0EBFBF0B10378012B12D0022BDF
:1086F000EED128464FF0000901F020FB30B180F8A0
:108700001C90284601F01AFB0028F8D1012388F8B4
:108710000030E0E741682368994200F0BA802846BB
:1087200001F016FBD7E7DFF834828D4FDFF81C929B
:1087300008EE106A37E0404601F000FB0546384677
:10874000AB68EA680193009200F042FB854E8446D4
:10875000D9E90001D6E9002310EB0C0041F100013A
:10876000994208BF9042DDE9002303D210F18070E6
:1087700041F10001B3EB000A62EB010BBAF1010F0A
:108780007BF1000329DBBAF5350F6BD2AA684FF4F1
:1087900096030021384600F069FA00285AD00D28C7
:1087A0001FD000232360404601F0CEFA002873D08A
:1087B0002368002BBFD02368D0E90201D3E902234C
:1087C000994208BF904248D223681B7F002BB2D049
:1087D0002168404601F09EFAADE70021384600F0DE
:1087E000DBFA5C4B1B78002BDBD02B7F002BD8D027
:1087F000384600F0EDFA8446D9E90001D6E90023B5
:1088000010EB0C0041F10001994208BF904203D2E5
:1088100010F1807041F10001D5E90223994208BFAF
:10882000904259D32B6903B92B77D5E90530984786
:1088300029690029B5D02B7F002BB2D0D5E90223BE
:10884000521843F10003C5E902232946404601F0CE
:1088500061FAA6E72368BBB1256005B0BDEC028BC9
:10886000BDE8F08F384600F0B3FA3F4A02448EE785
:1088700043681A7F002A7FF42EAF01221A774168DD
:10888000284601F047FA26E718EE100A00F0C0F972
:10889000E2E7002323601EE72368002BDDD118EEFA
:1088A000100A00F0B9F9D8E72D482E4D00F090FAE3
:1088B000264BD3E90089D5E9002318EB000849F1DC
:1088C0000009994508BF904503D218F1807849F115
:1088D0000009C5E90089F1E62946404601F01AFA87
:1088E0005FE71F4800F074FA184A1E4BD2E900896E
:1088F000D3E9002318EB000849F10009994508BFA6
:10890000904503D218F1807849F10009D5E9022396
:10891000994508BF904529D32B6903B92B77D5E931
:1089200005309847296900293FF4BFAE2B7F002B03
:108930003FF4BBAED5E90223521843F10003C5E969
:1089400002230648294601F0E5F9AEE6B03D0020D5
:10895000303E0020B83D0020143E0020EC450300CE
:10896000F4300020283E0020FFFFB40002482946D2
:1089700001F0D0F999E600BFEC45030010B5134BA8
:1089800013491B68134882B058220193082300F052
:108990003FFA044610B1204602B010BD0E4A0F48FF
:1089A00001A900F0D5F804460028F4D10B480121B4
:1089B00000F0D8F901231946094A084800F030F9B7
:1089C000084B012220461A7002B010BDE845030092
:1089D000BC3D0020143E002065860200F4300020DB
:1089E000FFFF7F00B83D00204AB1A1F101010368FB
:1089F000B1FA81F14909C3E9041200207047072048
:108A0000704700BF037F0BB100207047F0B5826153
:108A100083B004461A480D4600F0DAF9194B1A499A
:108A2000D3E90023D1E90067121843F10003BB42E8
:108A300008BFB24203D212F1807243F1000352190F
:108A4000216943F10003C4E9022301B125610F4804
:108A500001A900F0F5F948B100254460057001A9AD
:108A60000A4800F01BFA20B903B0F0BD042003B09F
:108A7000F0BD034800F0B0F9284603B0F0BD00BFD8
:108A8000F4300020B03D0020283E0020143E00209D
:108A900030B5002583B00446057701A90B4800F0E6
:108AA000CFF978B101224460027001A9074800F0B3
:108AB000F5F908B903B030BD054800F08DF9284636
:108AC00003B030BD042003B030BD00BF143E002011
:108AD000F430002070B4EFF3108472B60D4B9A6836
:108AE000AAB90D490D4E01259D60D1F88050354041
:108AF0001D60C1F88060D1F884505D604FF0FF3395
:108B0000C1F88430027004B962B670BC70470123AA
:108B10000370F8E72C4A002000E100E0FC06FFBDEE
:108B2000094B9A687AB170B910B4EFF3108172B63C
:108B3000064A1C6814605C685460986001B962B6AB
:108B40005DF8044B704770472C4A002000E100E0BC
:108B500070B5274C4379274E04EBC30546F8232014
:108B60002D79002D37D103680A88C3F8082590F9BC
:108B700004308A78002B26DB03F1604303F5614360
:108B80005201D2B283F8002390F90430002B07DBA6
:108B9000194903F01F0501225B09AA4041F823206F
:108BA0004279164B164D44F83200581B04EBC204B0
:108BB000C008012300041349237140F00300FEF7AD
:108BC0005BFE002070BD104903F00F0352011944F1
:108BD000D2B20A76D8E70A4B08480C49C01AC00836
:108BE000000440F00200FEF747FE082070BD00BF01
:108BF000343E00203C3E002000E100E0D857030056
:108C0000985703001C460300FCEC00E0F845030005
:108C1000036801221A607047036801225A60704796
:108C2000F0B404684FF480358D40C4F808530668EA
:108C300001F15004C6F84853A4000668A4B2002706
:108C4000375182B036590468019601F5A87122F0B7
:108C50007F42019E44F821200268C2F8445313B1B8
:108C60000368C3F8045302B0F0BC70472DE9F04725
:108C700004464FF4803600688E40C0F84863206890
:108C8000C0F80863206800EB81058A46D0F8041517
:108C9000D5F84005C5F840150AF15005AD00276824
:108CA000ADB24FF0000847F8058082B0401A7F59F6
:108CB000009720F07F40012822F07F479946009AD4
:108CC00041D02268D2F80455C2F844637A1B22F0DE
:108CD0007F42012A0AF5A87125D0226842F8217046
:108CE0002068D0F804557A1BC9F1FF13013A03F547
:108CF0007F4322F07F42934211D342B1C0F84463D4
:108D000023680020C3F8046302B0BDE8F087013790
:108D100040F821702068D0F804359D42EED00D2037
:108D200002B0BDE8F08720680D4B013740F8217094
:108D300043F001034FF4806098472068D0F8043571
:108D40009D42DBD0EBE7064A4FF4806042F001021F
:108D50009047226842F8058052590192019AB0E783
:108D60003046030002680223C2F8443311B102689E
:108D7000C2F80433704700BF0368D3F8040100B998
:108D80007047002282B0C3F80421D3F80431019364
:108D9000019B012002B0704702684FF4803303FA50
:108DA00001F1C2F848130368C3F80813704700BF05
:108DB00050318900036889B2585800B970470022C1
:108DC0005A5082B05B580193019B012002B070475A
:108DD0000368D3F80405704790F90430002B09DBD1
:108DE0005A090548403203F01F03012101FA03F339
:108DF00040F82230704700BF00E100E0024A034B18
:108E000010681B68184700BF343E00203C3E00201D
:108E100099B110B4B2FBF3F403FB1424A4B244B927
:108E2000C0E9001484608281C38120465DF8044B50
:108E3000704709205DF8044B70470E20704700BF53
:108E400030B482B050E8013F9DB2C4892544848982
:108E5000A54228BF2D1B0489A54202BFBFF32F8F57
:108E6000002207E0C5EA030540E80154002CE9D1DF
:108E70004FF001028DF803200193019B9DF8032020
:108E80000B602AB10B880068184402B030BC7047F0
:108E900002F0FF03184602B030BC70470A884B88C6
:108EA0009A4201D00020704750E8012FC2EA0242E6
:108EB00040E80123002BF7D10120704730B482B085
:108EC00050E8023F1FFAA3F5C488A54202BFBFF3D2
:108ED0002F8F00220DE0C48925448489A54228BF34
:108EE0002D1BC3EA054540E80254002CE8D14FF0A1
:108EF00001028DF803200193019B9DF803200B6074
:108F00002AB14B880068184402B030BC704702F0A8
:108F1000FF03184602B030BC704700BF0A884B8878
:108F20009A4201D00020704750E8022FC2EA224244
:108F300040E80223002BF7D1012070474A090123A2
:108F400001F01F0100EB820003FA01F100F022B8EA
:108F500001F01F0201234909934000EB8100D9432E
:108F600000F026B84B0901F01F0150F82300C8405B
:108F700000F00100704700BF10B4034653E8000F33
:108F80000A4643E8002494F0000FF7D15DF8044B43
:108F9000704700BF10B4034653E8002F42EA0100B7
:108FA00043E8000494F0000FF6D15DF8044B7047DD
:108FB00010B4034653E8002F02EA010043E800041E
:108FC00094F0000FF6D15DF8044B704710B40346DF
:108FD00053E8002F02EB010043E8000494F0000F77
:108FE000F6D15DF8044B704710B4034653E8002FE8
:108FF000A2EB010043E8000494F0000FF6D15DF805
:10900000044B704710B4034653E8002F8A422CBF2C
:10901000501A104643E8000494F0000FF4D15DF8B4
:10902000044B704710B40346012253E8001F41EA85
:10903000020043E8000494F0000FF6D15DF8044B01
:10904000704700BF10B40346002253E8000F00EA47
:10905000020143E8001494F0000FF6D15DF8044BD0
:10906000704700BFB8B130B4D0E90112521A046899
:10907000D2B2531E2160DBB242B101680A685C1EA5
:10908000551C0D601370E3B2FF2BF6D1036800206E
:10909000187130BC70470E20704700BFF0B583B028
:1090A000044600250DF107008DF80750FFF712FD6B
:1090B000D4E900311A688A4210D9511E196021681A
:1090C000A3680F6812F8015C0A79268AE068DB1B46
:1090D000DBB29A4206FB050538BF0B719DF807000D
:1090E000FFF71EFD284603B0F0BD00BF30B50546B2
:1090F00083B000230DF107000C468DF80730FFF711
:10910000E9FC2A681368591C1160E9682A8A641A04
:10911000B4FBF2F41C709DF80700FFF701FD03B0EB
:1091200030BD00BF826842B110B504464369016892
:10913000006998470023A36010BD70470EB400B5C6
:1091400082B0039921B104AB01AA019300F0ACF8FD
:1091500002B05DF804EB03B0704700BF2DE9F04F9B
:10916000164683B0B142DDE90C920F4605469A4699
:10917000C0F095800B464FF00108B3FBF6F39E421A
:1091800008F10108F9D9D04538BFD04612F00103E3
:10919000019302D1B9F1000F5ED1AA68012403E066
:1091A0000AF1FF3A06FB04F4BAF1010FF8D8B7FB55
:1091B000F4F39E42F6D9DFF8ECA007E0B442B4FB2A
:1091C000F6F31AD3AA681C46B7FBF3F31AF803B0F8
:1091D000BBF10A0F04FB137728D02B68511CA96040
:1091E00003F802B0D5E901329A42E7D32846FFF7E7
:1091F00099FFB4FBF6F3B442E4D2019B9BB1B9F101
:10920000000F10D02024C84509F1FF390BD2AB68FC
:109210002A68591CA960D454D5E901329A4214D263
:10922000B9F1000FEFD103B0BDE8F08F511C2B68EE
:10923000A9604FF00D019954D5E901329A42CCD37F
:109240002846FFF76FFFAA68C7E72846FFF76AFFBF
:10925000B9F1000FD7D1E6E793071AD42024AA6802
:10926000C84502F1010199D22B68A9609C54D5E947
:1092700001329A4209F1FF3903D2B9F1000FEFD15F
:109280008CE72846FFF74EFFAA68B9F1000FE7D137
:1092900084E7BAF1000F0CBF30242024DFE74FF041
:1092A000010870E738460300002900F054822DE9D8
:1092B000F04FDFF8B8950C7885B0064690460D461D
:1092C0004FF00D0A10E00A2CB36800F0AD80326850
:1092D000591CB160D454D6E901329A4280F0A08082
:1092E0002C78002C00F087800135002C00F0838062
:1092F000252CE8D1294600270D4611F8012B2D2AEF
:1093000000F08880302A00F088802B2A7AD02A2A20
:1093100000F09980A2F13003092B4FF000040BD824
:1093200004EB840402EB440415F8012FA2F130038E
:10933000092BA4F13004F3D92E2A00F090800023E9
:1093400001E015F8012F02F0FB016829F9D0252A68
:1093500000F07781583AD1B2202947D8202A45D841
:10936000DFE812F0350144004400440044004400AA
:1093700044004400440044004400430113014400FD
:1093800044004400440013014400440044004400ED
:1093900044004400D20044004400A2004400940071
:1093A00044004400350101209842024638BF1A4665
:1093B0000292002C40F05081B80740F16E81002BE2
:1093C00040F04E821C46BBF1000FC0F20A827A07C1
:1093D00000F11A8207F00302022A00F0EA81CDE9C7
:1093E000004759460A223046FFF7B8FE01352C786F
:1093F000002C7FF479AF337B002B40F01C8105B04B
:10940000BDE8F08F0D4611F8012B2D2A47F0040717
:109410007FF478AF47F001076EE747F002076BE78C
:109420003046FFF77FFE5BE73268591CB16002F8F7
:1094300003A0D6E901239342FFF449AF3046FFF77A
:1094400071FEB36843E7D8F800301A1DC8F8002051
:109450006A781C682E2A05F101057FF470AF6A78DE
:10946000A2F13003092B05F101054FF000033FF68F
:109470006AAF03EB830302EB430315F8012FA2F15C
:1094800030010929A3F13003F3D95CE7D8F80020B3
:10949000111DC8F8001011683046CDE900470A22B6
:1094A000FFF75CFE0135A2E7D8F800301A1DC8F8B6
:1094B000002017F00107D3F800B040F0F080BBF1B6
:1094C000000F03D058460AF03BFD0746BC4240F26D
:1094D0004381002C00F04081202205E0BC4200F0D6
:1094E0003B81002C00F03881B1683368481CB060C3
:1094F0005A54D6E90130984204F1FF34EED3304695
:10950000FFF710FE2022E9E7D8F80020131DC8F865
:109510000030B36831681768581C3022B060CA54F4
:10952000D6E90123934280F0EF803268581C7821FD
:10953000B060D154D6E901329A4280F0E0800F2F1A
:1095400003D93B461B090F2BFCD84FF0805406E093
:109550000F2C4FEA14137FF649AFB2681C46B7FBD5
:10956000F4F319F803B0BBF10A0F04FB137754D0DE
:109570003368511CB16003F802B0D6E901329A4257
:10958000E6D33046FFF7CEFDE2E7D8F80020111D04
:10959000C8F80010D2F800B08BEAEB72A2EBEB72C5
:1095A000092A7FF700AFDFF8C8C2012011466329FE
:1095B000ACFB02E200F101004FEAD202F6DC984275
:1095C000024638BF1A460292002C45D1F4E6D8F87C
:1095D0000020111DC8F8001011683046CDE9004781
:1095E0001022FFF7BBFD013501E7D8F800301A1D46
:1095F000C8F800201C78B3680A2C00F0118132688A
:10960000591CB160D454D6E901329A42FFF4EEAE4F
:109610003046FFF787FD0135E9E63368511CB1603C
:1096200003F802A0D6E901329A42A1D33046FFF7EF
:1096300079FDB2689CE7304605B0BDE8F04FFFF712
:1096400071BDB3683168581CB060CA54D6E90132A4
:109650009A42DDD20135CAE6BBF1000F59DB7A0729
:1096600057D4B80702D5002B3FF4ADAEF9073FF54C
:10967000AAAE94B120220299A142BFF4A4AEB1686F
:10968000481CB06030684254D6E90101814204F1BF
:10969000FF3480F0D480002CEDD1002493E69BF8B9
:1096A0000030002B00F0E080B0685F46CBF1010293
:1096B0000A2B02EB070B3CD0411CB16031680B5404
:1096C000D6E90130984226D217F8013F002BEFD19E
:1096D0005C457FF68BAE202702E05C453FF486AE0A
:1096E000B2683368511CB1609F54D6E901329A4286
:1096F00004F1FF34F1D33046FFF714FDEDE73046B7
:10970000FFF710FDB2681AE73046FFF70BFDB368AC
:109710000BE7013CA5E730460292FFF703FD17F87F
:10972000013F002BD4D0029AB0680A2B02EB070B42
:10973000C2D1411CB160316801F800A0D6E9011026
:109740008842B9D33046CDE90232FFF7EBFCDDE9C0
:109750000232B068B0E770479BF80040002C3FF43D
:1097600045AE0A2CB0680ED03368421CB2601C545F
:10977000D6E90130984214D21BF8014F002C3FF477
:1097800035AE0A2CF0D13368421CB26003F800A059
:10979000D6E901309842E7D33046FFF7C3FCB06802
:1097A000E2E73046FFF7BEFC1BF8014F002CD8D192
:1097B0001CE6002B7FF413AE8CB130220299A1423B
:1097C000BFF40DAEB168481CB06030684254D6E9B1
:1097D0000101814204F1FF343BD2002CEED1002480
:1097E000FDE5B1684A1CB26032682D205054D6E9BC
:1097F00001219142CBF1000BFFF4ECAD3046039315
:10980000FFF790FC039BE5E5B1684A1CB260326843
:109810002B205054D6E901219142FFF4DBADEDE756
:109820003268591CB16002F803A0D6E901239342C3
:10983000FFF4E5AE3046FFF775FCB368DFE630466F
:109840000393FFF76FFC039B2022002C7FF413AFE0
:1098500023E730460393FFF765FC039B3022BCE708
:10986000F9073FF5B0AD18E79B4631E738460300EE
:10987000CDCCCCCCFFF7F6BB2DE9F041058A033106
:10988000043D4E198046B6FBF5F6FFF707FCA0B382
:10989000F6B24FF48073013E0446C580C0F80080E4
:1098A00083802BD00346002508E06279AE4202F1A6
:1098B000010262713860C0F800801FD040461F4628
:1098C000FFF7ECFB013503460028EED16779791EDE
:1098D00017D02246013399421268FBD1D2F800809A
:1098E0005FB12668002501E034463668214601351F
:1098F0004046FFF7FBFBAF42F6D800242046BDE808
:10990000F08120682146FFF7F1FBF6E7F8B54679CC
:109910000146701E13D00A46002301339842126894
:10992000FBD1176856B10D68002401E029462D6867
:1099300001343846FFF7DAFBA642F7D8F8BDBDE898
:10994000F8400868FFF7D2BB04300121FFF73EBBA7
:109950002DE9F041012104460430FFF745FB10F0EA
:10996000FF0301D0BDE8F0816779791E16D0224649
:10997000013399421268FBD1D2F80080002FF1D058
:109980002668002501E03446366821460135404608
:10999000FFF7ACFBAF42F6D8BDE8F0812068214666
:1099A000BDE8F041FFF7A2BB2DE9F8430546C688A4
:1099B0004079144606FB00F2043A04EB030C1F1D29
:1099C000624538BFD41ABE428846B7FBF6F106FBA3
:1099D000117002D801392D68FCD1371AA74228BF6F
:1099E00027469CB14FF000090430E41B28443A4656
:1099F00008EB09010AF03CF8A642B9442D68374645
:109A00004FF0000028BF2746002CEDD1BDE8F883B9
:109A10002DE9F8430546C6884079144606FB00F256
:109A2000043A04EB030C1F1D624538BFD41ABE4232
:109A30008846B7FBF6F106FB117002D801392D6894
:109A4000FCD1371AA74228BF27469CB14FF0000926
:109A500004302918E41B3A4608EB09000AF008F81C
:109A6000A642B9442D6837464FF0000028BF27466C
:109A7000002CEDD1BDE8F88341DF7047064A074B63
:109A800010B5002414701C60BFF35F8F04490548B3
:109A900000F02AF9204610BD483E00204C3E002030
:109AA00054460300403E002000B583B000230DF172
:109AB00007008DF80730FFF70DF8F1EE103A23F0AC
:109AC0009F03E1EE103ABFF35F8F0B4B4022C3F8C8
:109AD00084219DF80700FFF723F804F059FE28B908
:109AE00020BF40BF20BF03B05DF804FBFFF7C4FFF9
:109AF00003B05DF804FB00BF00E100E0F0B50446F0
:109B000083B000250DF107000E468DF80750FEF7D3
:109B1000E1FF2368A26818685968914238BF4D1C5C
:109B2000A84212D0586859688A420BD800225A605D
:109B3000E268531E072B19D8DFE803F04540183BB5
:109B40001818183301315960F2E7217C002941D1FE
:109B500058685D68AA423AD859602268A1681368BB
:109B60008B4234BF013300231360E1E76368314661
:109B700000FB023009F07CFF2268136851688B42B9
:109B800082BFA06801300918CB1A91689DF80700C0
:109B9000994238BF9360FEF7C3FF0024204603B00C
:109BA000F0BD6368D6E9006703EBC000C0E9006759
:109BB000E2E76368326843F82020DDE763683288B3
:109BC00023F81020D8E7636832781A54D4E70135B7
:109BD0005D60C2E79DF80700FEF7A2FF042420465F
:109BE00003B0F0BD70B5044682B000230DF107004C
:109BF0000D468DF807301646FEF76CFF236818688F
:109C00005968884211D019682EB91A68A068824232
:109C100038BF561C1E60E268531E072B0DD8DFE8C4
:109C200003F0411A0C260C0C0C329DF80700FEF7CD
:109C300077FF0524204602B070BD6368284601FB0B
:109C4000023109F015FF9DF80700FEF769FF0024B7
:109C5000204602B070BD63689DF8070033F81130EC
:109C60002B80FEF75DFF0024204602B070BD6368C4
:109C70009DF8070053F821302B60FEF751FF0024B8
:109C8000204602B070BD63689DF8070003EBC10178
:109C9000D1E90023C5E90023FEF742FF0024204656
:109CA00002B070BD63689DF807005B5C2B70FEF727
:109CB00037FF0024204602B070BD00BF036818685B
:109CC0005B68C01AB0FA80F04009704782680023D0
:109CD000936082681361826853618268D36082688E
:109CE000536082681360704701600B6843604A6884
:109CF000934204BF00234360704700BF436843B1F1
:109D0000026891680B4443605268934204BF002389
:109D10004360704770B54468064620680D4618B920
:109D200008E02468206828B1B368294698470028CD
:109D3000F7D120682860256070BD00BF43681868AF
:109D400008B102681A60704743681868704700BF1E
:109D50004368186818B908E00346006828B18142D2
:109D6000FAD10A681A60012070477047114910B48F
:109D7000A1F5947205E052F83330984238BF21467D
:109D80000CD28C1AE30F03EBE4035B10914202EB5D
:109D9000C304F0D808485DF8044B704702D904F1B9
:109DA0000802EEE76068044B5DF8044B002808BF2A
:109DB00018467047944B0300584A030010B4754B83
:109DC0001B68082B1CD0744AD2F8883043F4700307
:109DD000C2F88830BFF34F8FBFF36F8F4FF010235F
:109DE000D3F80022002AC0F2A380D3F80432002B5B
:109DF000C0F29E80694B6A4A1A605DF8044B704756
:109E00004FF080414FF080520020C1F80C01654BAB
:109E1000C1F81001C1F83805D2F80414C3F82015B0
:109E2000D2F80814C3F82415D2F80C14C3F8281576
:109E3000D2F81014C3F82C15D2F81414C3F8301546
:109E4000D2F81814C3F83415D2F81C14C3F840150E
:109E5000D2F82014C3F84415D2F82414C3F84815D6
:109E6000D2F82814C3F84C15D2F82C14C3F85015A6
:109E7000D2F83014C3F85415D2F83414C3F860156E
:109E8000D2F83814C3F86415D2F83C04C3F8680556
:109E90004549D2F84004C3F86C050968D2F8442457
:109EA000C3F87025032937D8404B5B5C13B1404B96
:109EB000404A1A60404B5B5C63B1364B3F491B68BC
:109EC000394AFB20C1F81805082B11687FF47BAFD5
:109ED000032921D83A4B5B5C93B13A483A4B2D4C5D
:109EE00002681B682468304922F00F0203F00F0358
:109EF0001343082C096803607FF465AF03290BD86E
:109F0000324B5B5C43B1234B314A1B684FF4007109
:109F1000082B11607FF457AF4FF08043D3F8002433
:109F2000D2077FF550AF6FF00102C3F800244AE773
:109F3000284A0123C2F80435D2F80034002BFBD0A4
:109F40004FF010231221234AC3F80012D2F8003434
:109F5000002BFBD04FF0102312211E4AC3F804122D
:109F6000D2F80034002BFBD000231A49C2F8043584
:109F7000D1F80034002BFBD0BFF34F8F0649164BAE
:109F8000CA6802F4E0621343CB60BFF34F8F00BF97
:109F9000FDE700BF3001001000ED00E0FC300020C4
:109FA0000090D00300C0004034010010944B030027
:109FB0008C56004048810300944B030000F00040A1
:109FC000944B0300E40E004058020010944B030031
:109FD0004096024000E001400400FA05074B1B5C7C
:109FE0001F2B8ABF064A4FF0A04203F01F03D2F88E
:109FF0000405D840C04300F001007047984B0300AF
:10A0000000030050064B1A5C1F2A86BF054902F068
:10A010001F024FF0A04101239340C1F80C35704757
:10A02000984B030000030050064B1A5C1F2A86BFA2
:10A03000054902F01F024FF0A04101239340C1F8EF
:10A0400008357047984B0300000300504FF0A043C1
:10A0500010B44FF480404FF400544FF400414FF4DB
:10A060008032C3F80845C3F80805C3F80815C3F8DB
:10A0700008255DF8044B70474FF0A04310B44FF42F
:10A0800080404FF400544FF400414FF48032C3F845
:10A090000C45C3F80C05C3F80C15C3F80C255DF886
:10A0A000044B70470A4B185C1F288ABF09494FF0C0
:10A0B000A04100F01F00D1F804350122824022EABD
:10A0C00003001340C1F80805C1F80C35704700BF04
:10A0D000984B0300000300500B2809D00C2809D02E
:10A0E000182809D019280CBF03204FF0FF30704703
:10A0F000002070470120704702207047C20730B42B
:10A100000ED483070AD54FF0A0430C22C3F82C27A6
:10A11000C3F83027C3F86027C3F8642730BC704702
:10A120004FF0A0430322C3F834274FF40055C3F87F
:10A1300038274FF48044C3F83C274FF40041C3F85C
:10A1400040274FF48032C3F80855C3F80845C3F8D8
:10A150000815C3F80825D4E742DF704743DF70478E
:10A1600010B568B90E4CA368012262703BB1D3E907
:10A1700000230020A2609847A368002BF7D110BDF0
:10A180000128FCD1064C2369A070002BF7D0D3E93D
:10A1900000230120226198472369002BF7D110BDCD
:10A1A000503E002070B910B5074CA36801226270C0
:10A1B0003BB1D3E900230020A2609847A368002B9D
:10A1C000F7D110BD704700BF503E002030B50128C8
:10A1D00083B004D0032821D0B0B103B030BD294CE6
:10A1E00000230DF107008DF80730FEF773FC23788C
:10A1F0006BB3E3689DF8070001330122E360A270AE
:10A20000FEF78EFC03B030BD1F4B0122C3F8802047
:10A21000BFF34F8FBFF36F8F03B030BD194C00F009
:10A220005BF900230DF107008DF80730FEF752FCB3
:10A23000E368013BE360E3681BB9144BD3F80054B7
:10A24000C5B19DF80700FEF76BFC03B030BD1048A8
:10A250006360A3602361E36000F032F904F098FAD0
:10A2600060B10A4A01232370D2F80024002AC0D02A
:10A27000A370BEE700F046F9A570E2E700F02CF904
:10A28000EFE700BF503E002000E100E00000014089
:10A2900061A1020038B50E4C237843B185250D4BE2
:10A2A000D3F800340BB10123A370284638BD0A4807
:10A2B0006360A3602361E36000F002F9054604F0E7
:10A2C00067FA10B101232370E9E700F005F9F9E717
:10A2D000503E00200000014061A1020030B51D4D3C
:10A2E0006B7883B004469BB110B143680020984757
:10A2F00000230DF107008DF80730FEF7EBFB6B68CC
:10A300009DF8070001336B60FEF70AFC03B030BD17
:10A3100003F0FF020DF107008DF80720FEF7DAFBCE
:10A3200064B1AA6842B1944208D0134601E09C424D
:10A3300004D01B68002BFAD12260AC606B68002B44
:10A34000DDD104F025FA10B900F0F8F8D7E7FFF7EF
:10A3500003FFD4E7503E002070B5154C82B00023B7
:10A360000DF107008DF80730FEF7B4FB6368013B81
:10A37000636065682DB19DF80700FEF7D1FB02B060
:10A3800070BD04F005FA064640B900F0E9F89DF802
:10A3900007006670FEF7C4FB02B070BDFFF7DEFE7B
:10A3A0009DF807006570FEF7BBFB02B070BD00BFF3
:10A3B000503E002030B585B0047845688DF80040E7
:10A3C000D0E90240064A074B039053F8213001952B
:10A3D00052F821108DF808406846984705B030BD06
:10A3E000643E00206C3E002030B585B0047845689E
:10A3F0008DF80040D0E90240064A074B039053F81D
:10A400002130019552F821108DF808406846984790
:10A4100005B030BD643E00206C3E00202DE9F047C1
:10A42000DFF8748090F800E04B7F08F80E300D469E
:10A43000074616460FCD88B06C460FC495E80F004E
:10A440003D78DFF85890DFF858C018F8055049F803
:10A450002E6084E80F004CF82E00CDF810E05DB1BE
:10A46000002E0B4A694607F1040008BF324601F08E
:10A47000D7F808B0BDE8F087002E064A694607F114
:10A480000C0008BF324600F031FE08B0BDE8F0878E
:10A49000B5A30200E9A30200384A00206C3E002068
:10A4A000643E002010B4034653E8000F00EA0102A6
:10A4B00043E8002494F0000FF6D15DF8044B704798
:10A4C000044A137923B9012110609180184670471E
:10A4D00085207047743E0020084B1A68D20704D4C8
:10A4E000C02283F8002301221A60054A4FF0804100
:10A4F0000123C1F818351370704700BF00E100E078
:10A500003A4A002010B40B4B0B494FF08042002018
:10A510000224C2F8084383B018601B68019301232A
:10A5200001980B60D2F81834DB03FBD403B05DF85C
:10A53000044B7047040100400C000040074B002210
:10A540001A6082B01B68019301994FF08043012289
:10A55000C3F804231A6002B0704700BF0001004036
:10A5600010B40E490E484FF0804201230024C2F877
:10A57000083383B00C600968019101990360D2F837
:10A580000C3403F00113B3F1011FF8D0054B002286
:10A590005A7103B05DF8044B704700BF00010040E2
:10A5A00004000040743E002010B5174B1A6882B0BA
:10A5B00062B10021154A19601B68507900934FF071
:10A5C00080410123009CC1F8083398B1104B1A68F0
:10A5D000BAB100221A601B6801934FF08042022139
:10A5E0000A4B0198C2F808131B68012002B0BDE8AD
:10A5F00010401847116853718847054B1A68002AA4
:10A60000E7D102B010BD00BF00010040743E002041
:10A6100004010040F0B5264C94F86A3083B0002B5A
:10A6200042D14FF6FF70FF255A09012A0CBF02469E
:10A630004FF0FF3203F01F01CA40D20748BFE218B3
:10A6400003F1010348BF82F83050302BECD14FF0BA
:10A65000FF334FF0FF364FF0FF3706220021154839
:10A660002366C4E90233C4E90433C4E90633C4E908
:10A670000833C4E90A33C4E9006709F093FA0E4BC2
:10A68000C02283F8062340221A600C4B0C4A00209B
:10A6900018601B68019301214FF00043019D84F86D
:10A6A0006A10C2F8043300E0082003B0F0BD00BF18
:10A6B000803E0020E43E002000E100E07C6100409C
:10A6C00000600040034B93F86A00003818BF012077
:10A6D000704700BF803E0020F0B4754B1D1895F9FF
:10A6E0003040002C61DA8C78A707C4F3400C53D4B7
:10A6F0001C6A013400F0D5805C6A013400F0CA8025
:10A700000C260A2453F82450013552D0651CB5425A
:10A710003FD253F82570013700F0B480A51CB54234
:10A7200037D253F82570013700F0AC80E71CB742F0
:10A730002FD253F8275001353AD0271DB74228D2DF
:10A7400053F82750013533D0671DB74221D253F853
:10A75000275001352CD0A71DB7421AD253F82750E5
:10A76000013525D0E71DB74213D253F827500135E4
:10A770001ED004F10807B7420BD253F82750013519
:10A7800016D00934B44204D2DC6A013408BF0B2469
:10A790000FD00420F0BC70471C68013474D05C6892
:10A7A00001346DD008260224ACE70820F0BC7047C5
:10A7B0003C461E1865B243F8242086F83050BCF1A0
:10A7C000000F02D11C4484F858008A7854071AD428
:10A7D000D60744D41F284C7887BF364E00F01F029E
:10A7E00002464FF0A04602F5E072A40046F822406F
:10A7F000314EC40800F0070C375D012202FA0CF25A
:10A800003A4332558A7812F002021CD0AB0003F1B1
:10A81000804303F5C0430978D3F8104524F44F343E
:10A8200024F44074C3F8104502020904D3F810055B
:10A8300001F4403102F47C520A430243C3F810256C
:10A840000020F0BC7047083D2B44087893F8601056
:10A8500041EA801183F860101046F0BC70471F2851
:10A8600087BF144A00F01F0404464FF0A04202EBD9
:10A870008402D2F8004724F00204C2F80047B7E788
:10A88000012496E72C4694E7002485F830401A60AE
:10A8900025469AE7092685F830605A6234463546DF
:10A8A00090E7082685F830601A623446354689E715
:10A8B000803E002000030050E43E002070B4324C83
:10A8C000251883B095F93030072B22DD234493F807
:10A8D00058309B09032B46D0012B0CBF4FF400329C
:10A8E0004FF440321F288ABF284B4FF0A04300F09E
:10A8F0001F0003EB8000D0F8003723F44033C0F88A
:10A900000037D0F800371A43C0F8002703B070BCF6
:10A910007047DAB2072AF9D8980000F1804000F5B4
:10A92000C04003F140029200D0F8106592B202F1EB
:10A93000804202F5C04246F00106C0F810650020D2
:10A94000106012680192019A0029DFD095F9302039
:10A9500054F82220002AD9D00D49012202FA03F32B
:10A96000C1F80433D2E71F288ABF084A4FF0A0423B
:10A9700000F01F03D2F8102598BF0346DA4002F01A
:10A98000010202321204ADE7803E002000030050B5
:10A99000006000401F288ABF054B4FF0A04300F025
:10A9A0001F00D3F8103523FA00F000F001007047C3
:10A9B000000300502DE9F047002384B0CDE90233B5
:10A9C000D54A1168012900F040821E46D34B1A680F
:10A9D000012A00F02C82D24B1A68012A00F0198259
:10A9E000D04B1A68012A00F00682CF4B1A68012A60
:10A9F00000F0F381CD4B1A68012A00F0E081CC4BC6
:10AA00001A68012A00F0CD81CA4B1A68012A00F0A9
:10AA1000A181C94B1A68012A20D0E6B1C74F002492
:10AA20000125A30003F18043354203F5C0434FEAFB
:10AA300045050BD0D3F8100557F82420D3F810158E
:10AA4000C0F30520C1F3014102B190470134082C45
:10AA5000E7D1002E17DB04B0BDE8F08700221A60B2
:10AA60001B6801934FF0A042019BD2F82015B44B14
:10AA70000291C2F82015D3F820250392C3F82025AF
:10AA8000002E40F08B81AD4CAD4E01254FF0A0471C
:10AA900094F96000431C46D0C0F3C20204AB1A44D0
:10AAA00000F0070312F8082C05FA03F31A42C1B2AA
:10AAB00000F03F0037D01F2800F2258102464FF0FA
:10AAC000A04909EB820304EB000ED3F800C7D3F8CA
:10AAD000008728F44038C3F80087CCF3014C9EF976
:10AAE0003080D3F800E754F82880BCF1020F0CBF87
:10AAF0004FF4403A4FF4003A05FA02F24EEA0A0ED9
:10AB0000C3F800E7C9F82025B8F1000F0BD0890978
:10AB1000032900F0B381BCF1020F00F0BE81BCF14B
:10AB2000030F00F0A88194F96100411C46D0C0F3E6
:10AB3000C20204AB1A4400F0070312F8082C05FA0D
:10AB400003F31A42C1B200F03F0037D01F2800F2D1
:10AB5000DE8002464FF0A04909EB820304EB000EB1
:10AB6000D3F800C7D3F8008728F44038C3F800872B
:10AB7000CCF3014C9EF93080D3F800E754F82880DC
:10AB8000BCF1020F0CBF4FF4403A4FF4003A05FA03
:10AB900002F24EEA0A0EC3F800E7C9F82025B8F120
:10ABA000000F0BD08909032900F06D81BCF1020F61
:10ABB00000F06B81BCF1030F00F0628194F9620038
:10ABC000421C46D0C0F3C20204AB1A4400F0070393
:10ABD00012F8082C05FA03F31A42C1B200F03F0044
:10ABE00037D01F2800F2AE8002464FF0A04909EB93
:10ABF000820304EB000ED3F800C7D3F800879EF958
:10AC000030E028F44038C3F80087CCF3014CD3F887
:10AC100000A754F82E80BCF1020F0CBF4FF4403E49
:10AC20004FF4003E05FA02F24EEA0A0EC3F800E7BE
:10AC3000C9F82025B8F1000F0BD08909032900F0CD
:10AC40001381BCF1020F00F02481BCF1030F00F06E
:10AC5000088194F96300431C45D0C0F3C20204ABE1
:10AC60001A4400F0070312F8082C05FA03F31A42FD
:10AC7000C1B200F03F0036D01F2867D802464FF01F
:10AC8000A04909EB820304EB000ED3F800C7D3F808
:10AC900000879EF930E028F44038C3F80087CCF3F1
:10ACA000014CD3F800A754F82E80BCF1020F0CBF62
:10ACB0004FF4403E4FF4003E05FA02F24EEA0A0E0F
:10ACC000C3F800E7C9F82025B8F1000F0BD08909B7
:10ACD000032900F0CE80BCF1020F00F0E280BCF14D
:10ACE000030F00F0C380D7F820250292C7F8202573
:10ACF000D6F820350393C6F8203513437FF4C8AE49
:10AD000004B0BDE8F08701F01F02B146D9E601F0BA
:10AD10001F02B14620E700BF00610040046100400F
:10AD2000086100400C610040106100401461004067
:10AD3000186100401C6100407C610040803E0020A2
:10AD40000003005001F01F02B14650E701F01F025E
:10AD5000B14696E7554AD2F8042312067FF559AE5C
:10AD600000221A6019680091196E0098012903F1F8
:10AD7000600346F080067FF450AE1A601B680193B2
:10AD80004FF0A042019BD2F82015494B0291C2F826
:10AD90002015D3F820250392C3F8202546F000465D
:10ADA0003CE6424AD2F8042351067FF52DAE00223C
:10ADB0001A601B680093009B46F0400624E63B4A5D
:10ADC000D2F8042390067FF51AAE00221A601B68A1
:10ADD0000093009B46F0200611E6344AD2F8042383
:10ADE000D4067FF507AE00221A601B680093009B13
:10ADF00046F01006FEE52D4AD2F8042315077FF52C
:10AE0000F4AD00221A601B680093009B46F0080610
:10AE1000EBE5264AD2F8042357077FF5E1AD00227F
:10AE20001A601B680093009B46F00406D8E51F4A91
:10AE3000D2F8042392077FF5CEAD00221A601B687A
:10AE40000093009B46F00206C5E51849D1F804635B
:10AE500016F001063FF4BAAD136013680093009B2F
:10AE6000B4E502297FF4F5AEC047F2E602297FF48B
:10AE70003AAFC04737E702297FF455AEC04752E6E4
:10AE800002297FF49BAEC04798E601297FF496AE75
:10AE9000F9E701297FF4DDAEE6E701297FF443AE4F
:10AEA000ECE701297FF41FAFE3E700BF006000403B
:10AEB00000030050014B1B68184700BFEC3E002008
:10AEC000114B98421DD130B583B000230DF107001E
:10AED0008DF807300D46FDF7FDFD0C4B1C794CB984
:10AEE0009DF807001D6001221A71FDF719FE20462A
:10AEF00003B030BD9DF80700FDF712FE112003B02E
:10AF000030BD0020704700BF00200040EC3E002014
:10AF1000034B984203D1034B00221A601A71704709
:10AF200000200040EC3E002030B56E4AD2F80433D9
:10AF300099058BB068D5D2F82431002B64D000235A
:10AF4000C2F82431D2F8243101934FF40171664BD9
:10AF50000198C2F8081393F8291009B9012151602A
:10AF6000604902228DF81820D1F88024C1F880248D
:10AF70009869D968099200240025CDE90710C3E932
:10AF80000645D3E9001206A89047564AD2F81C316C
:10AF9000C3B1554B5869196A88426AD993F8281089
:10AFA00001F0FF00002964D1C2F81C01D2F81C1185
:10AFB000039103999C68186A196A205C013119622F
:10AFC000C2F81C05474AD2F84431DBB10021464B98
:10AFD000C2F84411D2F8440193F829100090009867
:10AFE00009B1012111609A6962B1586AD9680022D9
:10AFF0009A610122CDE907108DF8182006A8D3E93F
:10B00000001290470BB030BD364AD2F804335B07CC
:10B01000BBD5D2F80831002BB7D0334B9969002942
:10B020003ED00021C2F80811D2F808110491049909
:10B03000D868596AD2F8182542545A6A9969013277
:10B040005A625A6A8A42A0D1DA69002A31D0DD6890
:10B050005C6A18699A6101210022D860DA615A623B
:10B060008DF81810CDE90754D3E9001206A89047CF
:10B070008BE71C4A0021C2F81C11D2F81C21029255
:10B08000029A5A69002A9DD058699A688DF818105A
:10B0900008905961079206A8D3E90012904791E7FA
:10B0A000C2F80811D2F8080105900598D2F81825C1
:10B0B000C7E793F8292012B90A4A01215160094AC9
:10B0C0004FF40171C2F80813596ADA680891002434
:10B0D000012007928DF81800D3E900129C6106A8A0
:10B0E000904752E700200040F83E00202DE9F04153
:10B0F000DFF8E48106792C2303FB068382B093F802
:10B100002A30002B40F09E8005460C4600686D49B1
:10B110001746FFF7D5FE002840F090802368591CA1
:10B1200019D01F2B4FF001028ABF67494FF0A04191
:10B1300003F01F0302FA03F3C1F8083523681F2B3D
:10B1400086BF03F01F03604A4FF0A04203F5E0738F
:10B15000032142F8231063685A1C0BD01F2B86BFB3
:10B1600003F01F03584A4FF0A04203F5E07300219B
:10B1700042F823102B68A269C3F82425217D637D42
:10B180002A680B43C2F86C35D4E900122B68C3F867
:10B190001425C3F80C15237D012B5FD02C2303FB52
:10B1A00006F308EB03025760226948F803202A6877
:10B1B00097B30021237FC2F81C11D2F81C21009202
:10B1C0002A68009FC2F84411D2F844112A680191FC
:10B1D0003E4C0199C2F804432A6842F30731002922
:10B1E0004FEA123232DB01F1604101F561415B014E
:10B1F000DBB281F800332A6842F30733002B4FEAB1
:10B20000123109DB324C01225B0901F01F0102FA05
:10B2100001F144F823102A682C2303FB068601243D
:10B2200000230421C2F80015C6E9063386F82A4037
:10B2300086F82930736102B0BDE8F081112002B0B8
:10B24000BDE8F081082002B0BDE8F081214902F09C
:10B250000F025B011144DBB20B76CCE7A368591CEB
:10B260000BD01F2B86BF03F01F0317494FF0A041DF
:10B2700003F5E073002241F82320E3685A1C1AD03A
:10B280001F2B8ABF10494FF0A04103F01F0301227A
:10B2900002FA03F3C1F80835E3681F2B88BF03F0F7
:10B2A0001F0303F5E0738CBF07494FF0A041032251
:10B2B00041F82320E3682A68A168C2F80835C2F87B
:10B2C00010156BE729AF0200000300508000020058
:10B2D00000E100E0FCEC00E0F83E0020F8B53E4F55
:10B2E000047902682C2303FB047300215B68C2F815
:10B2F0000015C3B10368394AC3F80823036843F350
:10B300000732002A4FEA13310EDB5209344D203246
:10B31000012301F01F0103FA01F145F82210BFF3E8
:10B320004F8FBFF36F8F0368D3F80C65D3F81455B4
:10B33000D3F80825D3F810154FF0FF3CC3F814C517
:10B34000C3F80CC503686645C3F808C5C3F810C543
:10B350000CD01F2E86BF06F01F06224B4FF0A043D5
:10B3600006F5E0764FF0020C43F826C06E1C0BD0B9
:10B370001F2D86BF05F01F051A4B4FF0A04305F5A2
:10B38000E075022643F825604D1C0BD01F2986BFAF
:10B3900001F01F01134B4FF0A04301F5E0710225AE
:10B3A00043F82150531C0BD01F2A86BF02F01F0206
:10B3B0000C4B4FF0A04302F5E072022143F822103B
:10B3C0000068FFF7A5FD2C2303FB0474002384F819
:10B3D0002A306360F8BD00BFF83E002084020200FE
:10B3E00000E100E0000300502DE9F041314E057905
:10B3F0002C2303FB05630446586984B000284CD114
:10B400005A619960186283F828002268C2F81C010A
:10B41000D2F81C11226802910121029F91602268DA
:10B42000D3F808C0C2F81C01D2F81C11019101998F
:10B430001F6A196A1CF8077001311962C2F81C757D
:10B440005A6812B104B0BDE8F0815F691A6A2168D8
:10B4500097421BD9864602E093F828200ABBD1F810
:10B460001C21002AF8D0C1F81CE1D1F81C2103925C
:10B47000039AD3F820801A6A1CF8088001321A62F5
:10B48000C1F81C851A6A9742E9D82168D1F81C31A5
:10B49000002BFBD00123CB6004E0112004B0BDE8F9
:10B4A000F0810F202C2303FB056500236B6104B0A2
:10B4B000BDE8F081F83E002030B5574BD3F8242189
:10B4C0008BB0002A75D00022C3F82421D3F82421A0
:10B4D000049202228DF81820049AD3F880144F4A5F
:10B4E000C3F880140991D3F83C15D368089100245F
:10B4F00000250793C2E906451168536806A89847D6
:10B50000454BD3F8442152B10021444AC3F84411B9
:10B51000D3F84401916903900398002938D13E4B38
:10B52000D3F820215AB10021C3F82011D3F82021EB
:10B5300002920120394A029CD8605069D8B9364B32
:10B54000D3F85821AAB10021C3F85811D3F85801F3
:10B55000324A01900198506958B1D3F84C0593686C
:10B5600008908DF818105161079306A8D2E90013CE
:10B5700098470BB030BDD3F84C05936808908DF810
:10B5800018105161079306A8D2E900139847D6E72F
:10B59000D3F83C35D1680893002400250123079196
:10B5A0008DF81830C2E90645D2E9001306A898477D
:10B5B000B5E7D3F810110029A2D0C3F81021D3F8B1
:10B5C00010111648059105998469D3F83C15A142DC
:10B5D00096D1C469A4B1D3F80052846125F0200546
:10B5E000C3F80052D0E90343C26101220891C3604D
:10B5F0000168436807948DF8182006A898477FE7EC
:10B60000C26884610123CDE907218DF81830D0E9A3
:10B61000001306A8984773E700200040283F002049
:10B620002DE9F0430779824E07EBC70306EB83034E
:10B6300087B093F82030002B40F0B98004460D46C7
:10B6400000687C499046FFF73BFC002840F0AB8047
:10B650002B68591C4FEAC70919D01F2B4FF0010264
:10B660008ABF75494FF0A04103F01F0302FA03F3AC
:10B67000C1F808352B681F2B86BF03F01F036E4AE5
:10B680004FF0A04203F5E073032142F823106B68EA
:10B690005A1C0BD01F2B86BF03F01F03664A4FF0C6
:10B6A000A04203F5E073002142F823102368AA6941
:10B6B000C3F82425297D6A7D23680A43C3F86C25D5
:10B6C000D5E900312268C2F80C35C2F814152B7D7B
:10B6D000012B78D009EB070206EB8203C3F8048044
:10B6E0002B6946F82230B8F1000F4BD021682B7F30
:10B6F000524D0022C1F81021D1F81011019121689A
:10B70000DDF804C0C1F82021D1F820110291216890
:10B71000DDF808C0C1F82421D1F824110391216873
:10B72000DDF80CC0C1F84421D1F84411049121681E
:10B73000DDF810C0C1F85821D1F8581122680591E0
:10B740000599C2F80453226842F3073100294FEAF1
:10B75000123230DB01F1604101F561415B01DBB286
:10B7600081F80033226842F30733002B4FEA12318D
:10B7700009DB334D01225B0901F01F0102FA01F1DF
:10B7800045F8231022684F4406EB87060023012466
:10B790000821C2F80015C6E9063386F82040736117
:10B7A00007B0BDE8F083112007B0BDE8F0830820A2
:10B7B00007B0BDE8F083234902F00F025B0111449A
:10B7C000DBB20B76CEE7AB68591C0BD01F2B86BFC4
:10B7D00003F01F0318494FF0A04103F5E073002266
:10B7E00041F82320EB685A1C1AD01F2B8ABF12493C
:10B7F0004FF0A04103F01F03012202FA03F3C1F846
:10B800000835EB681F2B88BF03F01F0303F5E073B7
:10B810008CBF09494FF0A041032241F82320EB6877
:10B820002268A968C2F80835C2F8101552E700BFAF
:10B83000283F0020B9B4020000030050100342006A
:10B8400000E100E0FCEC00E02DE9F0410579564C08
:10B8500005EBC50304EB830301465B68006882B017
:10B86000EE00C3B1514BC0F808330B6843F3073205
:10B87000002A4FEA13330EDB5209DFF838C12032B9
:10B88000012703F01F0307FA03F34CF82230BFF33C
:10B890004F8FBFF36F8F721904EB8202D0F8003222
:10B8A000926923F02003C0F8003242B10023C0F8AF
:10B8B0004431D0F8443100930123009A43600023BF
:10B8C000C0F85831D0F8583101937319012204EBB4
:10B8D0008303019FC2609A69D0F85831002BFBD0D6
:10B8E0001AB1D0F84431002BF6D00023C0F800354F
:10B8F0000B684FF0FF38D3F80CE5D3F814C5D3F834
:10B900000825D3F81075C3F80C85C3F814850B68A7
:10B91000C645C3F80885C3F810850CD0BEF11F0FCB
:10B9200086BF0EF01F0E22494FF0A0410EF5E07EBB
:10B93000022341F82E30BCF1FF3F0CD0BCF11F0FA9
:10B9400086BF0CF01F0C1A494FF0A0410CF5E07CAB
:10B95000022341F82C30791C0BD01F2F86BF07F033
:10B960001F0713494FF0A04107F5E077022341F884
:10B970002730531C0BD01F2A86BF02F01F020C4930
:10B980004FF0A04102F5E072022341F82230FFF7A8
:10B99000BFFA354404EB8504002384F8203063604B
:10B9A00002B0BDE8F08100BF283F00201003420034
:10B9B0000003005000E100E0F0B401F06044B4F195
:10B9C000005F82B02CD10579274E05EBC50406EB4C
:10B9D000840403466069EF0000283ED16261A160E3
:10B9E0001A68C2F82001D2F820C11A68CDF804C044
:10B9F000DDF804C0C2F85801D2F8582100921A6844
:10BA0000DDF800C0D4F814C0C2F84415C2F848C527
:10BA10001A6801219160626832B102B0F0BC7047CF
:10BA2000102002B0F0BC70471A6800E0C8B9D2F824
:10BA30002011D2F858010029F8D090B90121D16025
:10BA40001B68D3F85821002AFBD07B1906EB83032F
:10BA500000225A6102B0F0BC7047112002B0F0BC65
:10BA600070470F20F1E700BF283F00200220FEF7BB
:10BA700019BB00BF2DE9F0470D460646FEF72CFB2B
:10BA8000032805D8012D04461AD0022D27D00DB168
:10BA9000BDE8F0871B48FCF7FBFF1B4B1B4A04EB80
:10BAA00044010B44125D9D78AA42F1D1002DEFD0E4
:10BAB000174B1B68002BEBD02846BDE8F047184712
:10BAC000114F00EB4003FA18FD5C53784FEA400831
:10BAD0005BB9A04447440D4BBA781A55E6E70A4BC8
:10BAE00000EB40041C446578E0E7DFF82890054847
:10BAF0004A464FF48041FCF785FF0028E9D189F8D8
:10BB00000060E6E7703F0020B03F0020CC3F0020FF
:10BB1000C43F00204C3F002010B50078FEF7DCFA4F
:10BB200003280BD8064B00EB40001844407828B19E
:10BB3000044B1B6813B1BDE81040184710BD00BF8F
:10BB4000B03F0020C43F002038B5C04D2B780446DC
:10BB50006BB1BF4B1B7800202870002B4DD0FEF737
:10BB600063FA0120FEF760FA0320FEF75DFA172C56
:10BB700000F26A81DFE814F0F700630063009F00C1
:10BB8000B200C500D70097005000440050004400A8
:10BB90007A0018001800180018001800E5002401A9
:10BBA00081000C015C005C00AA48FCF771FFD4F135
:10BBB0001104054600F03281002840F02F81012C4D
:10BBC00014D0C82303FB04F44FF47A704FF40043FD
:10BBD0000021C3FB04014FF4FA62002308F0BEFA0F
:10BBE0002A4601469B48FCF70DFF05460220FEF75A
:10BBF00009FA974B01221A701FE0FEF727FAB6E701
:10BC000001202870FEF74EFABDE838409248002225
:10BC10004FF40051FCF7F6BE01202870FEF742FAFF
:10BC2000BDE838408C48002240F26661FCF7EABE6D
:10BC3000FEF722FA894B00251C70284638BD0020EB
:10BC4000FEF7CCF9002840F0CF80FEF7DBF940F694
:10BC5000CD4141F69A13022C18BF19467F4B7E48FE
:10BC60001C70BDE838400022FCF7CCBEFEF704FA99
:10BC70007A4B0C221A700025DFE7754B1B78002BDE
:10BC800000F0DF800020FEF7CFF90120FEF7CCF9AD
:10BC90000320FEF7C9F90120FEF7B4F96F4B142217
:10BCA0001A700025C9E70020FEF7ACF96B4B07229C
:10BCB0001A700025C1E70020FEF790F9002840F037
:10BCC000A780FEF79FF940F6CD41644B62480324FC
:10BCD0001C70BDE838400022FCF794BE0020FEF73F
:10BCE0007DF9002840F08E80FEF78CF941F69A111C
:10BCF0005A4B594804241C70BDE838400022FCF718
:10BD000081BE0020FEF76AF9002877D1FEF77AF9A4
:10BD1000524B514805241C70BDE83840002240F6C3
:10BD2000CD41FCF76FBE0020FEF7BCF94B4B4A48F3
:10BD300006241C70BDE83840002240F26661FCF722
:10BD400061BE434B1B78002B78D00020FEF76CF9C6
:10BD50000120FEF769F90320FEF766F93F4B122236
:10BD60001A70002569E73A4B1B78002B60D0002041
:10BD7000FEF75AF90120FEF757F90320FEF754F9B0
:10BD80003548FCF785FE354B002205461A7054E70E
:10BD90002F4B1B78002B48D00020FEF745F90120DF
:10BDA000FEF742F90320FEF73FF90020FEF72AF9DB
:10BDB0000120FEF727F9294B15221A7000253CE7D0
:10BDC000234B1B78BBB30020FEF72EF90120FEF7B2
:10BDD0002BF90320FEF728F90020FEF713F91F4B7B
:10BDE00013221A70002528E70020FEF71DF9022C07
:10BDF00047F2333118BF4FF480312FE70020FEF7B0
:10BE000013F985E70020FEF70FF94FF480316FE753
:10BE10000020FEF709F943F2333156E70220FEF71E
:10BE200003F90B4B00221A7007E7FEF70FF9BCE786
:10BE3000FEF70CF9A4E7FEF709F9CDE7FEF706F9DE
:10BE40008CE7FEF703F926E70025F6E6C03F002061
:10BE50004D3F0020503F0020903F0020C83F002071
:10BE6000044B1B68DB0700D47047034B1878FFF7BF
:10BE70006BBE00BFBC3F0020C83F002038B5244B3C
:10BE8000244A196081070446106004D410F00105AB
:10BE90002CD1284638BD204B20480E250F221021DA
:10BEA0001D701125DA7099715D7240F233320421F0
:10BEB000FCF70EFB054630B1E207EAD50120FEF79C
:10BEC0001DF9284638BDFCF763FB05460028F3D171
:10BED0000146134A1348FCF787FDE3070546D8D50A
:10BEE0000120FEF70BF9002DD3D102E00120FEF76F
:10BEF00005F90D4A0D480021FCF776FD054600289E
:10BF0000C7D1BDE838400A4A0A480121FCF76CBD98
:10BF1000C43F0020BC3F0020B03F0020C84B0300BE
:10BF200019BB0200EC4B030061BE0200F04B0300A2
:10BF30006DBA0200E84B0300032806D8012A06D098
:10BF400001291BD0022908D071B1072070470129AF
:10BF500011D002294FF00002F6D10B4B00EB40004C
:10BF6000034400205A707047074B00EB4000034425
:10BF700008469A70704700F10E02D2B200EB4003FF
:10BF800001490020CA547047B03F002010B5038813
:10BF9000102B07D0112B04D1254B186801381860DD
:10BFA00030B110BD224C216811B30131216010BDA8
:10BFB00001220221FFF7C0FF40B1072806D01D4B28
:10BFC0001B68002BEDD0BDE8104018470722022166
:10BFD0000120FFF7B1FF08B10728F0D10021084682
:10BFE0000A22FFF7A9FF0028DBD00728E7D1D8E70E
:10BFF00001220846FFF7A0FF38B1072805D00D4BF6
:10C000001B6803B198472168CFE70722022101206E
:10C01000FFF792FF08B10728F1D104220221002086
:10C02000FFF78AFF0028EED00728E8D1EBE700BF32
:10C03000D43F0020D03F0020014B1868704700BF5C
:10C04000D83F0020014B1868704700BFE03F002038
:10C05000104A1378DBB910B403780F494FF08044CD
:10C06000C3F34003C4F88035037803F00103C4F838
:10C0700078350B68DB0704D4C02381F80033012333
:10C080000B600123137000205DF8044B704785207E
:10C09000704700BF3B4A002000E100E0014B02680E
:10C0A0001A607047E03F00204FF080434FF4607209
:10C0B000C3F80423704700BF4FF080434FF4607211
:10C0C000C3F80823704700BF014B00221A60704775
:10C0D000E03F002010B54FF0804386B0D3F8044312
:10C0E000620705D5D3F8082103F58473002A4ED1E1
:10C0F000A30603D52A4B1A68002A3FD1600603D550
:10C10000284B1A68002A2FD1210602D5264B1A681F
:10C110000ABBE20502D5254B1A6892B9A3050ED5D4
:10C12000234B1A685AB100221A601A68214B0592F3
:10C13000059A1B68022006B0BDE81040184706B0FB
:10C1400010BD00221A601B4A1B680493012013686B
:10C15000049A9847E2E700201860164A1B68039388
:10C160001368039A9847D4E700221A60124A1B68A2
:10C17000029301201368029A9847C5E700201860CF
:10C180000D4A1B6801931368019A9847B6E700228D
:10C190001A600A4A1B6800931368009A9847A7E739
:10C1A00014010040180100401C0100402001004023
:10C1B00024010040E03F0020DC3F0020D83F002069
:10C1C00008B5FFF787FFBDE80840FEF7EDB900BFEF
:10C1D00075DF704776DF70477ADF70477CDF704726
:10C1E0008FDF7047A3DF704762DF704701B1704790
:10C1F00007F090BAFCF7E2B90378052B00D070473E
:10C2000040680028FBD0FCF7D9B900BF0E2800D049
:10C2100070470548054B0649C01AC008000440F0A5
:10C220000300FBF729BB00BFC85703009857030062
:10C23000F44B03002DE9F0410378012B84B005D0C5
:10C24000022B64D07BB104B0BDE8F0813448354B9B
:10C250003549C01AC008000440F00300FBF70CFB8E
:10C2600004B0BDE8F0812F4B304904462C48C01A79
:10C27000C008000440F00300FBF7FEFA94F808E061
:10C28000BEF1000F47D02646658856F80E0FDFF83E
:10C29000A4C0F3687168B268B6F8108005EBC507F2
:10C2A0000CEB87073E460FC6BEF1010F4FEAC503F0
:10C2B000A6F800800ED054F8202FC7F8122062682C
:10C2C000A068E168C7F81620228AC7F81A00C7F8E4
:10C2D0001E107A842B440CEB830C2846BCF81C30CF
:10C2E000ADF80630012540F202244FF400320DF182
:10C2F000020301A9CDE90223ADF80250ADF80440D4
:10C30000FFF770FF00289ED0FCF758F99BE7044820
:10C31000044B07499DE76588DFF818C0EB00D9E7B3
:10C32000C857030098570300344C0300084C03001F
:10C33000504C0300E43F0020083808B5062805D813
:10C34000DFE800F0091B29040404050008BDBDE86E
:10C35000084004F085BF174B17481849C01AC00899
:10C36000000440F00300FBF787FA04F0B9F8002856
:10C37000ECD1BDE8084004F071BF0E4B0E481049E7
:10C38000C01AC008000440F00300FBF775FABDE8CE
:10C39000084004F0ABBF074B07480A49C01AC00861
:10C3A000000440F00300FBF767FABDE8084004F022
:10C3B00059BF00BF98570300C8570300684C0300DB
:10C3C0007C4C0300904C030010B503883B2B84B0D9
:10C3D000044642D80F2B3ED9103B2B2B3BD8DFE82D
:10C3E00003F0165A3A3A3A3A3A3A3A3A3A3A3A3A32
:10C3F0003A723A7A3A3A3A3A3A3A3A3A3A3A3A3A25
:10C400003A3A3A3A3A3A3A3A3A3A3A483A3E0021CD
:10C410003C484FF4BA6207F0C5FBA188394800F0E8
:10C42000DBFD00286AD1A3883748042B374B5CD04A
:10C43000C01AC008000440F003003549FBF71CFA9D
:10C44000344801F0F7FF00283AD10220FDF7ECFD57
:10C450000120FDF7D7FD04B010BD562BFBD1A088FD
:10C460001321FFF7B7FE0028F5D0FCF7A7F804B0BA
:10C4700010BD264B24482849C01AC008000440F0CB
:10C4800003000190FBF7F8F90198227C2349FBF7A0
:10C49000B7FA04B010BD1D4B1B482149C01AC00893
:10C4A000000440F00300FBF7E7F90220FDF7BCFDB4
:10C4B0000120FDF7A7FD174801F0BCFF0028C4D0FC
:10C4C000FCF77CF8C1E700F108018088FFF780FEE7
:10C4D0000028C0D0C9E700238088ADF80C3003A93C
:10C4E000FFF77EFE0028B6D0BFE7C01AC0080004E0
:10C4F0000C4940F00300FBF7BFF9ACE7FCF75EF82E
:10C5000091E700BF24310020C8570300985703006B
:10C51000B84C0300B8440020DC4C0300F84C030086
:10C52000CC4C03009C4C030030B54FF4804189B0E3
:10C530000020FBF72BF8002840F0D880FBF716F816
:10C54000FCF71CFA002840F00E8188490220FFF712
:10C5500095FC002840F004810120FDF7CFFDFDF798
:10C5600099FE002840F0F980814804F0B7FD0028CA
:10C5700040F0F0807F4804F0F1FE002840F0E780B2
:10C58000FDF77CFA002840F0DF8002F075F8002803
:10C5900040F0D78004AC002321460120049302F030
:10C5A00047F9002840F0CA80204602F0FFF9002831
:10C5B00040F0C180112370488DF8083007F0C0FCAE
:10C5C0006D4982B202A8FFF709FE002840F0B08052
:10C5D00008220021204607F0E5FA684B0493204624
:10C5E0004FF0C8730593FFF7F7FD002840F09D80DA
:10C5F0000023634A634807932146CDE9053304923B
:10C6000001F014FD002840F08D801022002120460A
:10C6100007F0C8FA01235C4A5C488DF814302146C3
:10C620008DF81C3001F0B0FE002878D15748002268
:10C63000012101F095FE00286ED1554A5348002192
:10C6400001F05CFE002864D108220DEB02000021FD
:10C6500007F0A8FA4F4A504B02A8CDE9022300F098
:10C6600039FC002852D14D4B53F8042B00920FCBCC
:10C6700084E80F000022022320460DF106010192FA
:10C68000474C8DF80630FFF7AFFD464B4649E41A9C
:10C69000E4082404054644F0030420462A46FBF738
:10C6A000AFF97DBB684600F031FC40BB20463F49F6
:10C6B000FBF7E2F8354801F0BDFEE8B90220FDF7CE
:10C6C000B3FC0120FDF79EFC39492046FBF7D4F866
:10C6D00004F0ACFD68B905F091FB0028FBD1FAF736
:10C6E000A3FF0028FBD1FDF7DFF9F4E7FBF766FFB6
:10C6F00024E7FBF763FFEEE7FBF760FFDEE7FBF7FE
:10C700005DFFD3E72846FBF759FFCBE7FBF756FF62
:10C71000A9E7FBF753FF97E7FBF750FF8DE7FBF720
:10C720004DFF83E7FBF74AFF6FE7FBF747FF5FE744
:10C73000FBF744FF4CE7FBF741FF3BE7FBF73EFF0E
:10C7400032E7FBF73BFF25E7FBF738FF1DE7FBF779
:10C7500035FF15E7FBF732FF0CE7FBF72FFF03E789
:10C76000FBF72CFFF8E6FBF729FFEEE60DC202000F
:10C77000504E0300B84D0300084D03005000A000C8
:10C78000F5C1020090440020F9C10200B844002025
:10C79000444E030035C2020008310020584D03000A
:10C7A000C857030098570300144D03002C4D030095
:10C7B0003C4D030032B3F8B5054608B301291646CF
:10C7C0004FF000030ADDEA185278092A06D0EA5C25
:10C7D000013213449BB25A1C8A42F4DB8B420FD2C3
:10C7E000EA5C6AB1013A97B257B102339CB2E319DD
:10C7F0008B4205DC24B1304607F0A2FBB84203D0DF
:10C800000020F8BD0020704702462919304607F085
:10C81000FFF8B0FA80F04009F8BD00BF2DE9F047FD
:10C8200003888788103B98B004460A2B1CD8DFE8A1
:10C8300003F030291B1B1B1B1B1B1B1E0600037A4E
:10C8400046483F2B4FEA1314394667D8FCF780FB64
:10C85000032C65D042483946FCF77AFB022C63D0A2
:10C8600040483946FCF774FB18B0BDE8F087037AFE
:10C87000002BF9D1437A39481B0739466BD5FCF7B1
:10C880005DFBF1E738483946FCF762FB18B0BDE8BC
:10C89000F087364A9368DB43009351686846FCF79B
:10C8A00087FB009B0193019B83B3002635462946F5
:10C8B00001A8FCF757FB28B118AB03EB4603013680
:10C8C00023F8285C0135142DF1D10D960DF1340CAF
:10C8D000BCE80F0002AD0FC5BCE80F000FC59CE817
:10C8E000070085E807008EB10DF10A08DFF888A07F
:10C8F00008EB460638F8029F1D4D28464946043588
:10C90000FCF726FBAA45F8D1B045F3D1132F12D975
:10C910000420FBF753FE18B0BDE8F087FCF70EFBD0
:10C920000F483946FCF70AFB0E483946FCF706FB70
:10C9300018B0BDE8F0870C483946FCF7FFFA0C4800
:10C940003946FCF7FBFAE37B022B8DD109483946C7
:10C95000FCF7F4FA88E7FCF7FBFA85E73845002096
:10C960003445002030450020284500202045002087
:10C97000244500202C4500209C4500202DE9F84F3F
:10C98000684F90F8C6623D68C6EB0613C6EB83039A
:10C99000044600EB430045B388465900624B80785B
:10C9A00093F802C0844500F0A580012D1DD993F8AD
:10C9B00006C0844500F0A680022D16D093F80AC068
:10C9C000844500F0A780032D0FD093F80EC0844556
:10C9D0000DD0042D09D093F812C084457CD0052DCC
:10C9E00003D093F816C084457ED0BDE8F88FB3F825
:10C9F0000CE034F801C0E645EBD14C4BD3F800B065
:10CA0000BBF1000FF1D0D4F8CC92B9F1050FECD8FE
:10CA100004EBC91A7623AAF8D22203FB06411A4670
:10CA20000AF5357007F024F8B8F1000F09F1010399
:10CA300014BF00220222AB42CAF84CB38AF8D022BB
:10CA4000C4F8CC32D1D1D4F84C3304F534709847C3
:10CA50003B68012B3BD9D4F8CC3304F5547098478C
:10CA60003B68022B33D9D4F84C3404F574709847E2
:10CA70003B68032B2BD9D4F8CC3404F58A60984753
:10CA80003B68042B23D9D4F84C3504F59A609847B9
:10CA90003B68052B1BD9D4F8CC3504F5AA60984720
:10CAA0003B68062B13D9D4F84C3604F5BA60984786
:10CAB0003B68072B0BD904F5CA650726EB6F2846A0
:10CAC00098473B6801369E4205F18005F6D3002366
:10CAD000C4F8CC32BDE8F88FB3F810E034F801C0E8
