:020000022000DC
:1070000000000420F97202002173020023730200C1
:10701000257302002773020029730200000000009C
:107020000000000000000000000000002B730200C0
:107030002D730200000000002F7302003173020064
:107040009DB9020033730200A9C20200337302002B
:107050003373020033730200A9BD020033730200D0
:107060003373020033730200337302003373020080
:107070003373020033730200337302003373020070
:1070800033730200FD8D020033730200337302007C
:1070900033730200337302000523030033730200CD
:1070A0003373020033730200337302003373020040
:1070B0003373020033730200000000000000000080
:1070C0003373020033730200337302003373020020
:1070D0003373020033730200337302003373020010
:1070E00033730200337302003373020000000000A8
:1070F0000000000033730200000000003373020040
:10710000000000000000000000000000000000007F
:10711000000000000000000000000000000000006F
:10712000000000000000000000000000000000005F
:10713000000000000000000000000000000000004F
:10714000000000000000000000000000000000003F
:10715000000000000000000000000000000000002F
:10716000000000000000000000000000000000001F
:10717000000000000000000000000000000000000F
:1071800000000000000000000000000000000000FF
:1071900000000000000000000000000000000000EF
:1071A00000000000000000000000000000000000DF
:1071B00000000000000000000000000000000000CF
:1071C00000000000000000000000000000000000BF
:1071D00000000000000000000000000000000000AF
:1071E000000000000000000000000000000000009F
:1071F000000000000000000000000000000000008F
:107200000348044B834202D0034B03B11847704735
:107210008432002084320020000000000548064926
:107220000B1AD90F01EBA301491002D0034B03B194
:10723000184770478432002084320020000000008C
:1072400010B5064C237843B9FFF7DAFF044B13B1AE
:107250000448AFF300800123237010BD9832002052
:10726000000000005462030008B5044B1BB1044940
:107270000448AFF30080BDE80840CFE700000000FD
:107280009C32002054620300A3F5803A704700BF8F
:10729000154B002B08BF114B9D46FFF7F5FF002152
:1072A0008B460F461148124A121A0CF025FD0C4B62
:1072B000002B00D098470B4B002B00D098470020A4
:1072C000002104000D000B480CF0F4FB0CF026FC30
:1072D0002000290006F0C0FA0CF0F2FB00000800C4
:1072E0000000000000000000000004209832002090
:1072F00074440020E93A03000649074A074B9B1AE9
:1073000003DD043BC858D050FBDC03F0F9FFFFF766
:10731000BFFF00000C640300002C00209832002006
:10732000FEE7FEE7FEE7FEE7FEE7FEE7FEE7FEE735
:10733000FEE7FEE7F0B595B000241D460E46084670
:10734000174603F08BFE304623460822099505A90F
:107350001A9D08970D950A948DF82C400C9403F013
:10736000E1FE9DF814308DF81140DDE9061003F0C0
:107370000302012ACDE9020128D0022A04D03046B6
:1073800003F070FE15B0F0BDBDF81650C3F3C20394
:107390008DF81030C5F389150827082D2C4628BF15
:1073A00008243B4622460EA9304603F0BBFE2D1BA7
:1073B000214608AB02AA0EA8274400F09FFE002D2C
:1073C000EBD1304603F04EFE15B0F0BDBDF81470A1
:1073D000059DC7F38312C3F3C2040EA93046920081
:1073E00008238DF81040C7F3831703F09BFEC5F305
:1073F000952508AB3A4628460EA9009302AB00F04B
:1074000005FE304603F02EFE15B0F0BD014B012203
:107410001A707047F8320020704700BF00B583B083
:10742000044B0093044A4023FFF784FF03B05DF848
:1074300004FB00BF3D740200B832002038B50E488E
:107440000E4D03780E4CEB5C00252570D2B253B183
:10745000043005F0ABFC58B90A4B1B7813B1237804
:10746000002BFCD038BD0C3005F0B8F90028F3D063
:1074700001F0A4F8F0E700BF002C002070440020C9
:10748000F8320020B43200202DE9704319481A4A1E
:107490000378D35C88B02BB3043005F0CFFB174DD5
:1074A0000FCD6C460FC495E80F004FF0EB7684E8E3
:1074B0000F004FF006084FF0FF394FF0FF344FF048
:1074C000FF350C48069600226946CDE90089CDE9D2
:1074D000024504F0E5F948B9094B00221A7008B0DA
:1074E000BDE870830C3005F0F3F8D8E701F066F8DA
:1074F000F2E700BF002C002070440020EC420300A3
:10750000B4320020F0B5154D0FCD89B06C460FC4D4
:1075100095E80F004FF0EB7C84E80F0006264FF053
:10752000FF374FF0FF344FF0FF350D4A0D48CDF8CF
:1075300018C06946CDE90067CDE9024504F0B0F90D
:1075400020B9094B01221A7009B0F0BD01F036F8DC
:10755000054B01221A7009B0F0BD00BFEC420300D8
:107560000D740200002C0020B432002008B5FFF793
:10757000C9FF0448042100F0C7FC034B01225A71E3
:1075800008BD00BFF4630300142C0020064B07481D
:1075900010B500221A7003F0F7FC044610B9044835
:1075A00003F036FE204610BDCC330020F462030009
:1075B0004443030099B10E4B0E495B1ADB0815D00A
:1075C00030B400220C4D02E0013293420BD035F86A
:1075D00022408442F8D151F8320030BC704705494E
:1075E00051F830007047002030BC70471846704793
:1075F000F46303001C63030098320020094B013937
:1076000003EBC00003290BD8DFE801F004020806F1
:107610000420704702207047407970470079704716
:10762000002070471C6303002DE9F0438C4CD4E923
:1076300001239A4285B060D00023C4F81834BFF308
:107640004F8FA568EAB2D31C04EB830114F82330F2
:10765000580718D566680B7803F00303012B42D056
:10766000022B03D14B88023505EB9315EAB2D4F80F
:107670001804D31C04EB830128B9AE4239D914F89D
:1076800023305B07E7D404EB82026B1CD2680192C3
:10769000DBB204EB830302F00302DB680293022AED
:1076A00005F102062DD0012A00F08D80D4F8105487
:1076B0003DB12B6828469B689847EB681D68002DF4
:1076C000F7D16848684B6949C01AC008000440F007
:1076D000020000F0D1F8D4E90130C01A18BF01202F
:1076E00005B0BDE8F0830B880235C3F383131D4456
:1076F000BCE7A66005B0BDE8F083002005B0BDE89A
:10770000F083BDF806305A48C3F389184546502D1A
:1077100028BF502565F38F1305F10801ADF8063039
:1077200003F034FC07460028C0D003F097FC002388
:1077300001A90822384603F0C1FCF343DBB2013350
:10774000B5EB830F4FEA8309F1B277D9A5EB0905B1
:10775000033104EB810108234A463846EDB203F0B9
:10776000ADFC44492A4609F10803384603F0A6FC5B
:1077700008F1030806EB9806D4F81834002B6AD1F8
:10778000D4F8105465B1EB685A7928463946002A76
:107790005DD02B681B689847EB681D68002DF2D1FF
:1077A000384603F05FFC00230DF103008DF8033031
:1077B00001F090F9D4F8183403B9A6609DF80300DD
:1077C00001F0AEF987E7BDF804302948C3F383120E
:1077D000062A28BF0622911C62F389138900ADF89E
:1077E000043003F0D3FB074600283FF45FAF03F0FB
:1077F00035FC0023082201A9384603F05FFCBDF8E0
:10780000043013F4707FB7D06FF00108A8EB0508BF
:107810000825F1B203312B46042204EB81013846DE
:1078200003F04CFCBDF80420013608EB0603C2F35C
:1078300083129A4205F10405EBD89DE703312A46ED
:1078400004EB81010823384603F038FC90E71D68FB
:10785000002D98D1A4E7384603F004FC3BE700BFB5
:10786000CC330020446303001C6303002C4303005B
:10787000F4620300D83300202DE9F04F5E4C87B04E
:10788000002306460DF10B008DF80B300F4601F07A
:1078900021F9D4E9015303F580735B1B012B7DD8DB
:1078A00004F21C4804F5836A04F214491AE0BDF896
:1078B0000E30C3F389130333090C0BEB930B4846CB
:1078C000019102F0ADFC0199002839D04046C4F87E
:1078D00008B002F079FCD4E9013202F58072D21AC4
:1078E000012A5CD80121404602F06EFC504602F0AD
:1078F00087FC484602F084FCA368DAB2D11C04EB92
:10790000810014F8211001F0040C490728D404EB7D
:107910008202591CD2680392C9B204EB810102F0C1
:107920000302012AC96803F1020B30D0022ABED03B
:1079300000214846019102F073FC01990028C5D14D
:107940004046C6E743880EEB9313DAB2D11C04EB32
:10795000810014F8211001F0040CBCF1000FD6D006
:10796000017801F0030101290BD0022903F1020E75
:1079700002F10301E6D004EB8100BCF1000FEFD16E
:10798000C5E702880233C2F383121344DDE7BDF872
:107990000C30C3F38313090C9B4490E72B46DAB2F7
:1079A0000332023305219DF80B0044F82210636076
:1079B00001F0B6F80021114802F0C0FB80F310007E
:1079C000F1006B1C01F03801DBB2EDB204EB830374
:1079D00041F001010004033540EA164641EA8727D9
:1079E000DE6044F8257023781BB1FFF71DFE0028E8
:1079F000FBD107B0BDE8F08FCC330020E837002082
:107A00002DE9F04F634C87B0002306460DF10B00C3
:107A10008DF80B300F46904601F05CF8D4E9015325
:107A200003F580735B1B022B7FD804F21C4904F51D
:107A3000836B04F2144A1BE0BDF80E20C2F38912D6
:107A40000332090C03EB92035046CDE9003102F0FA
:107A5000E7FB019900283AD0009BA360484602F05A
:107A6000B3FBD4E9013202F58072D21A022A5DD842
:107A70000121484602F0A8FB584602F0C1FB5046DF
:107A800002F0BEFBA368DAB2D11C04EB810014F84B
:107A9000211001F0040C490729D404EB8202591C7F
:107AA000D2680392C9B204EB810102F00302012AF9
:107AB000C96803F1020331D0022ABDD0002150462B
:107AC000CDE9003102F0ACFB01990028C4D1484651
:107AD000C5E743880EEB9313DAB2D11C04EB8100A7
:107AE00014F8211001F0040CBCF1000FD5D001787E
:107AF00001F0030101290BD0022903F1020E02F16A
:107B00000301E6D004EB8100BCF1000FEFD1C4E724
:107B100002880233C2F383121344DDE7BDF80C2060
:107B2000C2F38312090C13448EE72B46DAB20332F8
:107B3000033345219DF80B0044F82210636000F0E8
:107B4000EFFFAB1CDBB204EB830300211248C3F848
:107B50000C8002F0F3FA80F31000F1006B1C01F0CE
:107B60003801DBB2EDB204EB830341F041010004C4
:107B7000033540EA164641EA8727DE6044F825705F
:107B800023781BB1FFF750FD0028FBD107B0BDE8FB
:107B9000F08F00BFCC330020E83700202DE9F04FF4
:107BA000684C89B0002506460DF113001F468DF87C
:107BB00013508846039200F08DFFD4E9015303F57A
:107BC00080735B1B032B00F2828004F21C4904F5D6
:107BD000836B04F2144A1BE0BDF81620C2F389122D
:107BE0000332090C03EB92035046CDE9013102F058
:107BF00017FB029900283BD0019BA360484602F086
:107C0000E3FAD4E9013202F58072D21A032A5FD86E
:107C10000121484602F0D8FA584602F0F1FA5046DF
:107C200002F0EEFAA368DAB2D11C04EB810014F87A
:107C300021C01CF0040F0CF0040128D104EB8202D7
:107C4000591CD2680592C9B204EB810102F003020B
:107C5000012AC96803F1020332D0022ABCD00021F4
:107C60005046CDE9013102F0DBFA02990028C3D178
:107C70004846C4E743880EEB9313DAB2D11C04EBF9
:107C8000810014F8211001F004010029D6D090F8E9
:107C900000C00CF0030CBCF1010F0BD0BCF1020FC3
:107CA00003F1020E02F1030CE4D004EB8C00002976
:107CB000EDD1C3E702880233C2F383121344DCE739
:107CC000BDF81420C2F38312090C13448CE72B4631
:107CD000DAB20332043385219DF8130044F82210F0
:107CE000636000F01DFFAA1CEB1CDBB2D2B204EBF8
:107CF000830C04EB8202039B1348D3600021CCF871
:107D00000C7002F01BFA80F31000F1006B1C01F004
:107D10003801DBB2EDB204EB830341F081010004D2
:107D2000033540EA164641EA8821DE6044F8251012
:107D300023781BB1FFF778FC0028FBD109B0BDE820
:107D4000F08F00BFCC330020E83700202DE9F04F42
:107D50006B4C89B0002506460DF113001F468DF8C7
:107D600013508846039200F0B5FED4E9015303F5A1
:107D700080735B1B042B00F2828004F21C4904F523
:107D8000836B04F2144A1BE0BDF81620C2F389127B
:107D90000332090C03EB92035046CDE9013102F0A6
:107DA0003FFA029900283BD0019BA360484602F0AD
:107DB0000BFAD4E9013202F58072D21A042A5FD894
:107DC0000121484602F000FA584602F019FA5046DE
:107DD00002F016FAA368DAB2D11C04EB810014F8A1
:107DE00021C01CF0040F0CF0040128D104EB820226
:107DF000591CD2680592C9B204EB810102F003025A
:107E0000012AC96803F1020332D0022ABCD0002142
:107E10005046CDE9013102F003FA02990028C3D19E
:107E20004846C4E743880EEB9313DAB2D11C04EB47
:107E3000810014F8211001F004010029D6D090F837
:107E400000C00CF0030CBCF1010F0BD0BCF1020F11
:107E500003F1020E02F1030CE4D004EB8C000029C4
:107E6000EDD1C3E702880233C2F383121344DCE787
:107E7000BDF81420C2F38312090C13448CE72B467F
:107E8000DAB203320533C5219DF8130044F82210FD
:107E9000636000F045FEA81CEA1C2B1DC0B2DBB2DB
:107EA00004EB8000D2B204EB830C04EB8202039B50
:107EB000C3600021129B1348D760CCF80C3002F04D
:107EC0003DF980F31000F1006B1C01F03801DBB2CA
:107ED000EDB204EB830341F0C1010004033540EA35
:107EE000164641EA8821DE6044F8251023781BB14C
:107EF000FFF79AFB0028FBD109B0BDE8F08F00BF67
:107F0000CC330020E837002030B4154DD5F81014DC
:107F10000446002071B10B4601E01B6853B1DB68D9
:107F20001A798242F9D101300A28F3D14FF0FF309B
:107F300030BC7047E3681871D5F810344BB1DA687B
:107F4000E36812681A60D5F81034DB681C6030BC36
:107F50007047C5F81044E268136030BC704700BF3A
:107F6000CC33002038B5084BD3F8104401251D70E0
:107F70004CB1E3685D71236820465B689847E3680D
:107F80001C68002CF5D138BDCC33002030B5C38837
:107F900085B004460D461BBB217A05291ED0627AA6
:107FA00082B9134AA08852F8212003920021FFF7DA
:107FB00001FB039A0F490346284605B0BDE830404F
:107FC00002F0AAB9A088FFF719FB0B4B0B4953F835
:107FD0002020284602F0A0F9217AE2E705B030BD62
:107FE000074A00920749084A284602F095F9D3E764
:107FF0001C4403007C430300F84303007843030060
:108000007043030058430300504303002DE9F0433D
:1080100085B04FF0000C0C9C814694F80C8084F8DD
:108020000CC00E461746184621461D46FFF7AEFF08
:10803000062F09D8DFE807F0042E343B444F1F0019
:108040004946204602F068F92B7A052B05D06B7A59
:108050005BB92749204602F05FF9204602F050F94B
:1080600084F80C8005B0BDE8F083224A22492046FE
:1080700002F052F9EDE7D6E90413F2680393B3680E
:108080000291CDE900324946D6E90023204602F0AC
:1080900043F9D9E732684946204602F03DF9D3E773
:1080A000D6E900234946204602F036F9CCE7B3680A
:1080B0000093D6E900234946204602F02DF9C3E794
:1080C000D6E9023201920093D6E9002349462046C0
:1080D00002F022F9B8E7D6E90321B3680291CDE9AD
:1080E00000324946D6E90023204602F015F9ABE7F5
:1080F000884303007043030078430300082900D934
:1081000070472DE9F04F9B4683B000241B7B8BF812
:108110000C400D4606465946104690460193DFF83E
:10812000D0902C4FFFF732FF05E0325D013402F0B2
:10813000F3F8082C09D0A54239465846F5D84946E7
:10814000013402F0E9F8082CF5D12349DFF8A490B6
:10815000224C234F584602F0DFF84FF0000A0DE0A2
:10816000D15D11F0970F08BF2E22214658460AF123
:10817000010A02F0D1F8BAF1080F10D0554505D91F
:1081800016F80A207E2AEBD92E22EEE749465846F9
:108190000AF1010A02F0C0F8BAF1080FEED198F81E
:1081A0000830052B02D098F8093063B90D495846BC
:1081B00002F0B2F8584602F0A3F8019B8BF80C309D
:1081C00003B0BDE8F08F084A0849584602F0A4F809
:1081D000ECE700BF8C430300984303009C4303007B
:1081E0004D6103008843030070430300784303009C
:1081F000944303008443030038B5174B1D783DB307
:10820000164B1968C0B200230C4604E00133AB42A0
:1082100004F108041CD011F833209042F6D103F089
:10822000B3FD6378A3F10103B3FA83F35B098342DF
:1082300000D038BD0A4BD3E900231343F9D1094BD1
:10824000094819680022BDE83840490800F0DABB47
:1082500000231B78FFDE00BF84380020D8380020C0
:10826000B038002088380020903800202DE9F04FE9
:10827000DFF8548298F8003083B0002B00F01981A9
:10828000DFF848928C4F8D4E00254FF0010A3C6874
:1082900014F8350003F078FD04EBC50314F83540FD
:1082A0005B784FEA540C14F0010E16F80C10A3F191
:1082B0000103B3FA83F314BF0A0901F00F025B094B
:1082C000042A00F2A080DFE802F0725D3220030091
:1082D000834240F0AB80BEF1000F0CBFF0230F23B0
:1082E00003EA01030CBF03213021194306F80C10E7
:1082F00098F8002001359542C9DBD9E900231343E2
:1083000040F0CD8003B0BDE8F08F83427BD0BEF15A
:10831000000F0CBFF0230F2303EA01030CBF04215D
:108320004021194306F80C1098F80020E2E7834238
:108330006CD1BEF1000F0CBFF0230F2303EA010341
:1083400098F800200CBF03213021194306F80C10C7
:10835000002AD2D0D7F800C00023614603E0934240
:1083600001F10801C6D01CF83300A04203F101035B
:10837000F5D14B68002BBDD020460121984798F8D5
:108380000020B7E7834219BF0020034602232020C4
:10839000BEF1000F0CBFF0220F2201EA020118BF4C
:1083A00003460B4306F80C3098F80020A2E78342FE
:1083B00029D1BEF1000F14BF0F23F02303EA0103FC
:1083C00014BF1021012119430DF107004FF00003E4
:1083D00006F80C108DF8073000F07CFBD9E900326C
:1083E000A4F12001C4F120000AFA01F12AFA00F0F8
:1083F00001430AFA04F4114323439DF80700C9E935
:10840000003100F08DFB98F8002073E7BEF1000FFB
:108410000CBFF0230F2303EA01030CBF012110213D
:10842000194306F80C1098F8002063E7BEF1000F1E
:1084300014BF0F23F02398F80000194006F80C1021
:1084400098B1D7F800C00023624603E0834202F1EE
:1084500008020AD01CF83310A14203F10103F5D140
:10846000536813B10021204698474FF000030DF1E7
:1084700007008DF8073000F02DFBD9E90032A4F198
:108480002001C4F120000AFA01F12AFA00F00143A8
:108490000AFA04F422EA010123EA0403ADE7084BD7
:1084A000084819680022490800F0ACFA03B0BDE89A
:1084B000F08FDFF8189020E7D8380020B838002077
:1084C000883800209038002084380020B038002000
:1084D000092A43D92DE9F04182B0144606460D46DB
:1084E00003F0EAFA002832D0214A2249224B1660D2
:1084F0000D7022481C60002120220BF0FDFB204B58
:10850000002000216C1EC3E90001E4B245B3DFF88E
:108510007C8006EBC404032702E0A64220D01C4660
:108520009DF80630A57820788DF8047023F00703B5
:10853000424601A98DF806308DF8055003F0C6FAC1
:10854000A4F108030028E8D002B0BDE8F08103F0F0
:108550005BFA0028C8D002B0BDE8F0810720704760
:10856000084A0948002100F03FFA02B0BDE8F08156
:10857000D83800208438002088380020B8380020FF
:10858000B03800206D8202003C440300F9810200F3
:1085900070B5084D2B785BB1074E0024336801217C
:1085A00013F8340003F084FB2B780134A342F5D890
:1085B000002070BD84380020D838002000B585B078
:1085C0000346002101AA44F20100CDE90111039301
:1085D00000F004F805B05DF804FB00BF10B572B6FA
:1085E000FFF7C0FCFFF720F80028FBD1104B114C1F
:1085F0001149E41AE408240444F00100FFF73CF9AF
:108600000E4B1B68DB0700D500BE0D4944F002008D
:10861000FFF732F9BFF34F8F0A490B4BCA6802F4D8
:10862000E0621343CB60BFF34F8F00BFFDE700BF95
:108630001C6303004463030040440300F0ED00E0CA
:108640004C44030000ED00E00400FA05D0E90223E9
:10865000D1E90201994208BF90422CBF01200020BD
:10866000704700BF2DE9F04F2DED028B85B0064617
:1086700000F082FB40B1B54AD2E9003113F18073BA
:1086800041F10001C2E900310021304600F090FBC9
:10869000AF4C60B1236853B1AE4B25681B7823B152
:1086A0001DB12B7F002B40F01C8100232360012192
:1086B000304600F07DFB002840F0F680A64803A974
:1086C00001F08EFC78B3A54DDFF88882A24F0BE055
:1086D000002B00F0CD8003A9384601F0B1FC03A9BE
:1086E000384601F07DFCF0B10378012B12D0022B4B
:1086F000EED128464FF0000902F0C2FD30B180F8FB
:108700001C90284602F0BCFD0028F8D1012388F80F
:108710000030E0E741682368994200F0BA802846BB
:1087200002F0B8FDD7E7DFF834828D4FDFF81C92F6
:1087300008EE106A37E0404602F0A2FD05463846D2
:10874000AB68EA680193009200F042FB854E8446D4
:10875000D9E90001D6E9002310EB0C0041F100013A
:10876000994208BF9042DDE9002303D210F18070E6
:1087700041F10001B3EB000A62EB010BBAF1010F0A
:108780007BF1000329DBBAF5350F6BD2AA684FF4F1
:1087900096030021384600F069FA00285AD00D28C7
:1087A0001FD000232360404602F070FD002873D0E4
:1087B0002368002BBFD02368D0E90201D3E902234C
:1087C000994208BF904248D223681B7F002BB2D049
:1087D0002168404602F040FDADE70021384600F038
:1087E000DBFA5C4B1B78002BDBD02B7F002BD8D027
:1087F000384600F0EDFA8446D9E90001D6E90023B5
:1088000010EB0C0041F10001994208BF904203D2E5
:1088100010F1807041F10001D5E90223994208BFAF
:10882000904259D32B6903B92B77D5E90530984786
:1088300029690029B5D02B7F002BB2D0D5E90223BE
:10884000521843F10003C5E902232946404602F0CD
:1088500003FDA6E72368BBB1256005B0BDEC028B24
:10886000BDE8F08F384600F0B3FA3F4A02448EE785
:1088700043681A7F002A7FF42EAF01221A774168DD
:10888000284602F0E9FC26E718EE100A00F0C0F9CD
:10889000E2E7002323601EE72368002BDDD118EEFA
:1088A000100A00F0B9F9D8E72D482E4D00F090FAE3
:1088B000264BD3E90089D5E9002318EB000849F1DC
:1088C0000009994508BF904503D218F1807849F115
:1088D0000009C5E90089F1E62946404602F0BCFCE2
:1088E0005FE71F4800F074FA184A1E4BD2E900896E
:1088F000D3E9002318EB000849F10009994508BFA6
:10890000904503D218F1807849F10009D5E9022396
:10891000994508BF904529D32B6903B92B77D5E931
:1089200005309847296900293FF4BFAE2B7F002B03
:108930003FF4BBAED5E90223521843F10003C5E969
:1089400002230648294602F087FCAEE6E038002004
:1089500060390020E8380020443900206C440300CE
:108960001C2C002058390020FFFFB4000248294683
:1089700002F072FC99E600BF6C44030010B5134B83
:1089800013491B68134882B058220193082301F051
:10899000D1FA044610B1204602B010BD0E4A0F486D
:1089A00001A900F0D5F804460028F4D10B480121B4
:1089B00000F0D8F901231946094A084800F030F9B7
:1089C000084B012220461A7002B010BD6844030013
:1089D000EC38002044390020658602001C2C002061
:1089E000FFFF7F00E83800204AB1A1F101010368D0
:1089F000B1FA81F14909C3E9041200207047072048
:108A0000704700BF037F0BB100207047F0B5826153
:108A100083B004461A480D4600F0DAF9194B1A499A
:108A2000D3E90023D1E90067121843F10003BB42E8
:108A300008BFB24203D212F1807243F1000352190F
:108A4000216943F10003C4E9022301B125610F4804
:108A500001A901F087FA48B100254460057001A919
:108A60000A4801F0ADFA20B903B0F0BD042003B00C
:108A7000F0BD034800F0B0F9284603B0F0BD00BFD8
:108A80001C2C0020E03800205839002044390020F8
:108A900030B5002583B00446057701A90B4801F0E5
:108AA00061FA78B101224460027001A9074801F01F
:108AB00087FA08B903B030BD054800F08DF92846A3
:108AC00003B030BD042003B030BD00BF44390020E6
:108AD0001C2C002070B4EFF3108472B60D4B9A6812
:108AE000AAB90D490D4E01259D60D1F88050354041
:108AF0001D60C1F88060D1F884505D604FF0FF3395
:108B0000C1F88430027004B962B670BC70470123AA
:108B10000370F8E76444002000E100E0FC06FFBDBC
:108B2000094B9A687AB170B910B4EFF3108172B63C
:108B3000064A1C6814605C685460986001B962B6AB
:108B40005DF8044B704770476444002000E100E08A
:108B500070B5274C4379274E04EBC30546F8232014
:108B60002D79002D37D103680A88C3F8082590F9BC
:108B700004308A78002B26DB03F1604303F5614360
:108B80005201D2B283F8002390F90430002B07DBA6
:108B9000194903F01F0501225B09AA4041F823206F
:108BA0004279164B164D44F83200581B04EBC204B0
:108BB000C008012300041349237140F00300FEF7AD
:108BC0005BFE002070BD104903F00F0352011944F1
:108BD000D2B20A76D8E70A4B08480C49C01AC00836
:108BE000000440F00200FEF747FE082070BD00BF01
:108BF000643900206C39002000E100E05463030078
:108C00001C6303009C440300FCEC00E07844030078
:108C1000036801221A607047036801225A60704796
:108C2000F0B404684FF480358D40C4F808530668EA
:108C300001F15004C6F84853A4000668A4B2002706
:108C4000375182B036590468019601F5A87122F0B7
:108C50007F42019E44F821200268C2F8445313B1B8
:108C60000368C3F8045302B0F0BC70472DE9F04725
:108C700004464FF4803600688E40C0F84863206890
:108C8000C0F80863206800EB81058A46D0F8041517
:108C9000D5F84005C5F840150AF15005AD00276824
:108CA000ADB24FF0000847F8058082B0401A7F59F6
:108CB000009720F07F40012822F07F479946009AD4
:108CC00041D02268D2F80455C2F844637A1B22F0DE
:108CD0007F42012A0AF5A87125D0226842F8217046
:108CE0002068D0F804557A1BC9F1FF13013A03F547
:108CF0007F4322F07F42934211D342B1C0F84463D4
:108D000023680020C3F8046302B0BDE8F087013790
:108D100040F821702068D0F804359D42EED00D2037
:108D200002B0BDE8F08720680D4B013740F8217094
:108D300043F001034FF4806098472068D0F8043571
:108D40009D42DBD0EBE7064A4FF4806042F001021F
:108D50009047226842F8058052590192019AB0E783
:108D6000B044030002680223C2F8443311B1026820
:108D7000C2F80433704700BF0368D3F8040100B998
:108D80007047002282B0C3F80421D3F80431019364
:108D9000019B012002B0704702684FF4803303FA50
:108DA00001F1C2F848130368C3F80813704700BF05
:108DB00050318900036889B2585800B970470022C1
:108DC0005A5082B05B580193019B012002B070475A
:108DD0000368D3F80405704790F90430002B09DBD1
:108DE0005A090548403203F01F03012101FA03F339
:108DF00040F82230704700BF00E100E0024A034B18
:108E000010681B68184700BF643900206C390020C7
:108E1000F0B543688C461BB1324AD468A3423CD2B9
:108E20000023314EACF8003073684FF0010E03F5AB
:108E300080544FF6FF7708339C420ED8BEF1020FE4
:108E4000ACF800E006F114064AD0736803F58054CC
:108E500008339C424FF0020EF0D91A680132EDD06F
:108E60005A88033203EB82029442E7D39D88BD42C5
:108E700009D01D883DB19D68691C04D00168A942D4
:108E800005D01346D8E79442D8D91346E5E7174AE8
:108E90004360138903810120F0BD12699342BFD85A
:108EA00013F00305BCD1114A048912899442B7D149
:108EB00004689A689442B3D10B484268934203D93C
:108EC00002F58052934207D38269934208D902F592
:108ED0008052934204D20125ACF800500120F0BD2D
:108EE0000020F0BD84320020B039002094390020E9
:108EF0002DE9F04F9C4E8BB004464FF6FF77356856
:108F0000002D00F0CB802A78531E052B00F29081B3
:108F1000DFE803F05C2323030341002C40F0C5800D
:108F20002B79012B00F0C082022B00F0DA80002B9D
:108F300000F092820DF11408C8E902440594C8F8C3
:108F4000104048F20E6406942B78013B052B4DD857
:108F5000DFE803F0756685799949B5F814A0002C0F
:108F600040F05482DFF82082A97D0AEB8A0308EBE7
:108F700083034FEA8A091C895B6803EB8404062992
:108F800000F27D84DFE811F02B021802FE01EB01F4
:108F9000CA01B0019601002C40F08780DFF8ECC1D7
:108FA0009CF80C30002B00F0C4809CF800308CF84A
:108FB0000C40013B062B00F23B81DFE813F0190364
:108FC000F30224010C013901DD02E900002C40F01C
:108FD00015822B79032B00F29F80DFE813F05F01ED
:108FE00072005401340105238DF814305F4C04F1F4
:108FF000100554F8043B404603B19847A542F8D108
:109000005B495C480024346001F01AF85A48012199
:1090100001F0E8F800287FF472AF0BB0BDE8F08FE4
:1090200001238DF814302B89ADF82030AB88ADF8D2
:109030002230EB68079300238DF82430D6E7002315
:109040008DF81430D2E703238DF81430EB88ADF897
:1090500020302B89ADF82230EB680793C6E7022356
:109060008DF814302B89ADF82030AB88ADF8223064
:10907000EB680793AB7DA3F10603B3FA83F35B09B7
:109080008DF82430B2E704238DF81430EB88ADF866
:1090900020300023ADF822300793A7E73449354844
:1090A00000F09EFF054630602DE74FF406440DF1B9
:1090B00014080023C8E90033C8E90233C8F81030A7
:1090C00041E7DFF8C48098F80030022B12D098F8FE
:1090D0001430022B00F0AA83284B012100221970C2
:1090E0005A600DF114080024C8E90344C8F8084088
:1090F000059428E700239A001A4408EB8203002015
:1091000059680090082308F822001D4A1D4801F004
:109110009FFC002881D03568184A0DF114080023FF
:10912000C8E9023353600593C8F8103048F20D6463
:1091300009E79CF80030072B09D8DFE813F0DC02C0
:10914000080008001003FA0229002900D602013B9A
:10915000062B6DD8DFE813F04C02260257003F00C3
:109160006C0010021C0000BFAC3900207C390020CC
:10917000A4390020D8390020E83900208C3900209B
:10918000BC44030084320020B03900209439002010
:10919000BB4BBC4A1968BC4800230093CCF8043090
:1091A00007238CF80030082301F052FC0446002C01
:1091B0003FF433AF35680DF1140841F61D5200231A
:1091C0009442C8E90333C8F80830059308BF1C4629
:1091D0003FF4B9AE18E3BCF80230DFF8C88203EB05
:1091E000830308EB8308D8F80C30002B40F04D8245
:1091F00004228CF80020D8F80410A348012201F0C2
:10920000C5FC0446D3E7DCF804209D4853888488D5
:1092100001689D4803339BB29B0001EB840100244D
:10922000009403248CF8004001F012FC0446BEE7D1
:109230000DF114080023C8E90333C8F8083005937A
:1092400048F20E647FE68E4C904A21688E48DFF823
:1092500054824FF0000985F804900823CDF800905F
:1092600001F0F6FB8A4B25685B88A18803EB83033A
:1092700008EB830208F823905368236002235560AB
:109280001181A38045E77E4A7F48116800230224AC
:109290002B719480012201F079FC3AE7784B794AEE
:1092A0001968794801232B7100230093082301F0EA
:1092B000CFFB2EE72A4641F61D5409EB0A0108EBC5
:1092C0008101EB880889033303440B81D144EB8887
:1092D00008EB8908C3F57F43B8F80A10FD330B4447
:1092E0001546A8F80A3066E76A4B6B4A1C88516835
:1092F00065486A4A00234FF0060C85F816C00093B3
:10930000042301F0A5FB18BB04EB840408EB8408DC
:10931000012388F810300BB0BDE8F08F5E48AB69D0
:109320005C4903604FF0000BC0F804B0FFF770FD1C
:10933000002800F06C820223AB7504235248CDF85C
:1093400000B02146EA1801F083FB00283FF465AE27
:10935000AB7D3268022B48F20D64B7D9ADE7EB88DC
:109360002A6949484FF0010C04F10C01002485F8EA
:1093700016C09B00009401F06BFB0028E8D10BB0F5
:10938000BDE8F08F2B694048002B14BF0323012355
:109390000022AB7504F108010092042305F10C02D0
:1093A00001F056FB00283FF438AEAB7D3268022B4B
:1093B00048F20D648AD980E7032A0CBF05230623EF
:1093C0000022AB7530480092211D042305F10802EC
:1093D00001F03EFB0028BBD10BB0BDE8F08F0223AB
:1093E0000022AB750423009227482146EA1801F0B9
:1093F0002FFB0028ACD10BB0BDE8F08F284B00222A
:109400005A604FF406440DF1140852E6AB7DDFF8C4
:109410009480022B08D90AEB8A0208EB8202EB88BF
:10942000118903330B4413814FEA8A0909EB0A01BE
:10943000EB8808EB8101C3F57F434A890DF11408DD
:10944000FD3313440022C8E903224B81C8F80820E9
:1094500005924FF4064476E502232B71CDE90644CC
:109460000DF11408EB68059340460DF11201FFF76A
:10947000CFFC002840F0A08148F2096419E600BF43
:10948000EC390020C444030084320020BC440300B3
:1094900094390020F439002070390020B8440300CA
:1094A0008C390020B0390020BC4B1B78002B00F019
:1094B0009D81DFF8ECE2BEF80490B9F1010F12D8FB
:1094C000DFF8F082039409EB890208EB820213783B
:1094D00083B109F1010399B201299946AEF804302C
:1094E00002F11402F3D9AE48082200210AF004FC6C
:1094F0003568F6E55368DEF8001003F5805C03F18B
:10950000080A002900F070814B88033301EB8301C6
:109510008C4506D8039BCEF80030DAE79C45F9D994
:1095200019460B680133F5D04B88033301EB8303F5
:109530009C45EFD38C88BC42F0D0B1F800B0BBF1B1
:10954000000FEBD088680130E8D0EB88CEF800102F
:10955000A342D6D100230093924A9348042301F0FA
:1095600077FA002840F0808109EB890908EB890827
:10957000012388F8103050E5BCF80220DFF834826F
:109580009300134408EB830806200023D8F8041046
:10959000864A00938CF800000823834801F058FAAB
:1095A000044604E6BCF80200DFF80882DCF8042078
:1095B00000EB800308EB83034FEA800E596801F546
:1095C0008055002A40F0E48001F10802AA426DD3E0
:1095D000704408EB8008D8F80C30002B55D10420DB
:1095E0008CF800000122704801F0D0FA0446DEE554
:1095F0009CF80A3063B1DFF8BC81D8F80C30002247
:109600008CF80A2023B998F81020002A40F0328103
:109610009CF80B3053B1DFF89C81D8F82030002241
:109620008CF80B2013B998F8243073B90DF1140895
:109630000023C8E90333C8F808308CF80030ACF8D0
:109640000230CCF8043005937DE4012318464FEA3C
:10965000830E0EEB030108EB8101DCF8042049685E
:10966000ACF8020001F58055002A00F00581508811
:10967000033002EB8002954200F2DA80734408EB7B
:109680008308D8F80C30002BA9D0494B46481968FC
:1096900002229A8005228CF800200023012201F08A
:1096A00075FA044683E5AB4292D21A461368013339
:1096B0008ED05388033302EB8303AB4288D894885F
:1096C000BC42F0D01488002CEDD094680134EAD06C
:1096D000CCF80420364C5388A588216832480333DF
:1096E0009BB29B0001EB850199E501238CF80030CA
:1096F0009CF80A307EE7DFF8BC80BCF8081098F8C8
:10970000142098F80030B2FA82F252090131B3FA0B
:1097100083F35B098CF80B20ACF8081000220121C0
:109720008CF80A30ACF802208CF80C208CF8001071
:1097300060E7BCF80220DFF87C801D4902EB820361
:1097400008EB83030C6858688D885C60086000240F
:1097500002201D811C74888002FA00F311E7BCF816
:109760000200134CDFF84C80DCF80420A3885588F5
:1097700000EB800108EB8101033349682B444FF073
:10978000020901F58055A38000FA09FE8CF80090CB
:109790005388033302EB830218E700BF8C390020A3
:1097A000F8390020B844030084320020BC44030090
:1097B000EC390020B03900200699334A8B88EB80C1
:1097C0000B882B81314800940423BDF8124001F02E
:1097D0003FF938BB2E4B04EB840403EB84040123D4
:1097E00023740BB0BDE8F08F514691E60DF11408DB
:1097F0002146284808220AF07FFAC8E90244059465
:10980000C8F8104048F201643568FFF79CBB0DF1C1
:109810001408C8E90200059048F20964C8F810006D
:10982000FFF791BB356848F20D6442E4012362E41E
:10983000106801303FF422AF5088033002EB800003
:109840008542FFF41BAF9488BC4205D014881CB13C
:10985000946801347FF43CAF85427FF60FAF024637
:1098600010680130E8D109E7356848F20D640DF160
:1098700014081EE41846EAE601F10802FBE62A464F
:1098800048F20E6419E500BFB8440300843200209A
:10989000B0390020F83900204068FFF729BB00BF2D
:1098A00030B370B50D4682B0F1B10DF1060104463A
:1098B000FFF7AEFA18B948F2096002B070BDBDF802
:1098C00006000D4B666800EB800003EB8000012171
:1098D0000C3000F079FC2E60636801220C3300200C
:1098E0006B60A27202B070BD48F2046002B070BD3D
:1098F00048F20460704700BFB039002010B310B5C3
:1099000082B00DF106010446FFF782FAB0B1BDF84E
:1099100006300E4A03EB830302EB8303DA684AB195
:10992000A27A3AB1DA680021013A0846DA60A172F7
:1099300002B010BD48F2056002B010BD48F20960E7
:1099400002B010BD48F20460704700BFB03900207B
:109950002DE9F047514B1B7882B083B30C460029A8
:1099600045D00A884FF6FF739A4222D04B8803B342
:109970004D6815F0030534D1B1F8089009F10303DF
:109980009BB240F2FE32934234D8454A11780746E2
:1099900039B9508911890144194489B2B1F5806FF0
:1099A0002BD9117D89B148F20665284602B0BDE881
:1099B000F08748F20365284602B0BDE8F08748F218
:1099C0000165284602B0BDE8F087D08B918B014439
:1099D000194489B2B1F5806FE5D84FF001084146CE
:1099E0000DE048F20265284602B0BDE8F08748F273
:1099F0000465DAE748F20865D7E7A84629464FEA42
:109A0000810A8A4402EB8A0A034401A92548AAF87C
:109A10000A3000F0A7FA1C22064600210AF06CF971
:109A2000002E2FD002234FF0000AA6F814803370C6
:109A300086F816A06368336101211B4800F0C4FB5F
:109A4000F0602388338163881648B38001A9A6F8A3
:109A50000AA0A6F8069000F0B3FA47B1C7F804A030
:109A6000F268124B3A601B8987F80AA03B811048C4
:109A7000012100F09BFB0446002896D1FFF738FA3D
:109A8000254692E7BAF80A30C9F57F4909F1FD0980
:109A90009944AAF80A9048F2076586E78C390020B5
:109AA000B0390020D8390020A8390020943900208E
:109AB000E83900202DE9F04782B068B3524B1B789B
:109AC000002B41D00C4639B30A884FF6FF739A42F7
:109AD00034D04B8893B34E6816F003063AD1B1F8F0
:109AE00008A00AF103039BB240F2FE32934234D83D
:109AF000464A1178054639B95189108908441844F5
:109B000080B2B0F5806F2BD9117D59B148F206664D
:109B1000304602B0BDE8F08748F20466304602B035
:109B2000BDE8F087D18B908B0844184480B2B0F523
:109B3000806FEBD84FF00109484613E048F2036606
:109B4000304602B0BDE8F08748F20166304602B008
:109B5000BDE8F08748F20266DAE748F20866D7E720
:109B6000B14630464FEA8008804402EB88080B4437
:109B70002748A8F80A3001A900F0F4F91C2207468A
:109B800000210AF0B9F8002F32D04FF0000803236B
:109B9000A7F814903B7087F8168063683B61012139
:109BA0001C4800F011FBF86023883B816388BB8070
:109BB0000423A7F806A0BB752B68BB6101A9144854
:109BC000A7F80A8000F0FCF9C5F80480FA68124B87
:109BD0002A601B89114885F80A802B81012100F039
:109BE000E5FA0446002893D1FFF782F926468FE76D
:109BF000B8F80A30CAF57F4A0AF1FD0A9A44A8F873
:109C00000AA048F2076683E78C390020B0390020AB
:109C1000D8390020A839002094390020E8390020E4
:109C200070B51D4B1B7882B00BB34FF6FF73984293
:109C3000044626D001A9194800F094F91C220546D3
:109C400000210AF059F8BDB105230126EC8001A9D5
:109C50002B7012482E7100F0B3F91148314600F014
:109C6000A5FA044690B10024204602B070BD48F227
:109C70000164204602B070BD48F20764204602B07D
:109C800070BD48F20364204602B070BDFFF730F9A2
:109C9000204602B070BD00BF8C390020D8390020AA
:109CA000E83900202DE9F047324C2478002C59D0B7
:109CB000002A5BD0002B59D09F88012F14D82E4E3C
:109CC00007EB87048A4606EB84064FF6FF7E4FF0CB
:109CD000000834785CB10137BCB2022C9C8006F1DC
:109CE00014064FF00107F4D148F2096035E01C6812
:109CF000756805F5805C002C31D06588033504EB70
:109D00008504644505D3C3F80080E4E7AC45FAD97F
:109D10002C4625680135F6D06588033504EB8505AA
:109D2000AC45F0D3B4F80490F145EFD0B4F800900E
:109D3000B9F1000FEAD0A1680131E7D01C60A58815
:109D40008542D5D125885545D2D1A16811601968C1
:109D50000A4B51601B8913810020BDE8F08705F193
:109D60000804CEE748F20160BDE8F08748F20460DD
:109D7000BDE8F0878C390020B039002094390020EC
:109D8000304B1B78002B56D0002957D0002A55D0D5
:109D90002DE9F041B2F804E0BEF1010F14D82A4DCC
:109DA0000EEB8E0305EB83054FF6FF774FF0000CAB
:109DB0002B7863B10EF101039BB2022B938005F166
:109DC00014054FF0010EF3D148F209602EE013683C
:109DD0006C6804F580585BB35C88033403EB840340
:109DE000434505D3C2F800C0E4E7A045FAD92346AD
:109DF0001C680134F6D05C88033403EB8404A0456E
:109E0000F0D39E88BE42F0D01E88002EEDD09E6812
:109E10000136EAD013601C888442D9D19B680B605C
:109E200012680A4B4A601B890B810020BDE8F08153
:109E300004F10803D4E748F20160704748F2046077
:109E4000704700BF8C390020B039002094390020C1
:109E5000304B1B78002B56D0002957D0002A55D004
:109E60002DE9F041B2F804E0BEF1010F14D82A4DFB
:109E70000EEB8E0305EB83054FF6FF774FF0000CDA
:109E80002B7863B10EF101039BB2022B938005F195
:109E900014054FF0010EF3D148F209602EE013686B
:109EA0006C6804F580585BB35C88033403EB84036F
:109EB000434505D3C2F800C0E4E7A045FAD92346DC
:109EC0001C680134F6D05C88033403EB8404A0459D
:109ED000F0D39E88BE42F0D01E88002EEDD09E6842
:109EE0000136EAD013609C888442D9D19B680B600C
:109EF00012680A4B4A601B890B810020BDE8F08183
:109F000004F10803D4E748F20160704748F20460A6
:109F1000704700BF8C390020B039002094390020F0
:109F200020B119B103680B600020704748F204604B
:109F3000704700BF99B110B4B2FBF3F403FB1424D3
:109F4000A4B244B9C0E9001484608281C381204670
:109F50005DF8044B704709205DF8044B70470E20F4
:109F6000704700BF30B482B050E8013F9DB2C48951
:109F700025448489A54228BF2D1B0489A54202BF20
:109F8000BFF32F8F002207E0C5EA030540E8015424
:109F9000002CE9D14FF001028DF803200193019BC1
:109FA0009DF803200B602AB10B880068184402B0AA
:109FB00030BC704702F0FF03184602B030BC704757
:109FC0000A884B889A4201D00020704750E8012F40
:109FD000C2EA024240E80123002BF7D1012070477A
:109FE00030B482B050E8023F1FFAA3F5C488A542FE
:109FF00002BFBFF32F8F00220DE0C489254484895E
:10A00000A54228BF2D1BC3EA054540E80254002C99
:10A01000E8D14FF001028DF803200193019B9DF8D8
:10A0200003200B602AB14B880068184402B030BC92
:10A03000704702F0FF03184602B030BC704700BF03
:10A040000A884B889A4201D00020704750E8022FBE
:10A05000C2EA224240E80223002BF7D101207047D8
:10A060004A09012301F01F0100EB820003FA01F10C
:10A0700000F080B84B0910B501F01F04012100EB7E
:10A080008300A14000F068F8E04000F0010010BD3E
:10A0900001F01F0201234909934000EB8100D943DD
:10A0A00000F076B84B0901F01F0150F82300C840BA
:10A0B00000F00100704700BF2DE9F04F01F1FF3BB8
:10A0C00083B04FEA5B130F460546019300264FF01D
:10A0D000010A55F8264005EB8608E44394FAA4F4F7
:10A0E000FCB1B4FA84F404EB46144FEA4619A742D3
:10A0F00017D904F01F0360090AFA03F105EB800089
:10A100009B4600F029F820FA0BF0C30711D5D8F8C8
:10A110000030DB4393FAA3F3B3FA83F44C44002BEF
:10A12000E5D1019AB24206F1010301D01E46D0E703
:10A130003C46204603B0BDE8F08F00BF10B4034694
:10A1400053E8000F0A4643E8002494F0000FF7D1CB
:10A150005DF8044B704700BF10B4034653E8000F8E
:10A1600040EA010243E8002494F0000FF6D15DF8C4
:10A17000044B704710B4034653E8002F42EA010035
:10A1800043E8000494F0000FF6D15DF8044B7047EB
:10A1900010B4034653E8002F02EA010043E800042C
:10A1A00094F0000FF6D15DF8044B704710B40346ED
:10A1B00053E8000F00EB010243E8002494F0000F85
:10A1C000F6D15DF8044B704710B4034653E8002FF6
:10A1D00002EB010043E8000494F0000FF6D15DF8B3
:10A1E000044B704710B4034653E8002FA2EB010064
:10A1F00043E8000494F0000FF6D15DF8044B70477B
:10A2000010B40346012253E8001F41EA020043E86C
:10A21000000494F0000FF6D15DF8044B704700BFC6
:10A2200010B40346002253E8000F00EA020143E89D
:10A23000001494F0000FF6D15DF8044B704700BF96
:10A24000B8B130B4D0E90112521A0468D2B2531E28
:10A250002160DBB242B101680A685C1E551C0D60CA
:10A260001370E3B2FF2BF6D103680020187130BCE5
:10A2700070470E20704700BFF0B583B0044600253C
:10A280000DF107008DF80750FEF724FCD4E90031EA
:10A290001A688A4210D9511E19602168A3680F6894
:10A2A00012F8015C0A79268AE068DB1BDBB29A426D
:10A2B00006FB050538BF0B719DF80700FEF730FC63
:10A2C000284603B0F0BD00BF30B5054683B000237B
:10A2D0000DF107000C468DF80730FEF7FBFB2A68EE
:10A2E0001368591C1160E9682A8A641AB4FBF2F4F5
:10A2F0001C709DF80700FEF713FC03B030BD00BFD3
:10A30000826842B110B50446436901680069984704
:10A310000023A36010BD70470EB400B582B003994E
:10A3200021B104AB01AA019300F0ACF802B05DF8D2
:10A3300004EB03B0704700BF2DE9F04F164683B021
:10A34000B142DDE90C920F4605469A46C0F0958071
:10A350000B464FF00108B3FBF6F39E4208F10108EB
:10A36000F9D9D04538BFD04612F00103019302D18C
:10A37000B9F1000F5ED1AA68012403E00AF1FF3AA7
:10A3800006FB04F4BAF1010FF8D8B7FBF4F39E42D0
:10A39000F6D9DFF8ECA007E0B442B4FBF6F31AD329
:10A3A000AA681C46B7FBF3F31AF803B0BBF10A0F17
:10A3B00004FB137728D02B68511CA96003F802B066
:10A3C000D5E901329A42E7D32846FFF799FFB4FB5B
:10A3D000F6F3B442E4D2019B9BB1B9F1000F10D067
:10A3E0002024C84509F1FF390BD2AB682A68591CF3
:10A3F000A960D454D5E901329A4214D2B9F1000FC0
:10A40000EFD103B0BDE8F08F511C2B68A9604FF06D
:10A410000D019954D5E901329A42CCD32846FFF771
:10A420006FFFAA68C7E72846FFF76AFFB9F1000F78
:10A43000D7D1E6E793071AD42024AA68C84502F1C9
:10A44000010199D22B68A9609C54D5E901329A4246
:10A4500009F1FF3903D2B9F1000FEFD18CE728469B
:10A46000FFF74EFFAA68B9F1000FE7D184E7BAF110
:10A47000000F0CBF30242024DFE74FF0010870E705
:10A48000CC440300002900F054822DE9F04FDFF89E
:10A49000B8950C7885B0064690460D464FF00D0AEB
:10A4A00010E00A2CB36800F0AD803268591CB1602E
:10A4B000D454D6E901329A4280F0A0802C78002C46
:10A4C00000F087800135002C00F08380252CE8D136
:10A4D000294600270D4611F8012B2D2A00F088800F
:10A4E000302A00F088802B2A7AD02A2A00F099801E
:10A4F000A2F13003092B4FF000040BD804EB8404C5
:10A5000002EB440415F8012FA2F13003092BA4F14A
:10A510003004F3D92E2A00F09080002301E015F8D2
:10A52000012F02F0FB016829F9D0252A00F077817C
:10A53000583AD1B2202947D8202A45D8DFE812F06E
:10A5400035014400440044004400440044004400F9
:10A55000440044004400430113014400440044000B
:10A5600044001301440044004400440044004400FB
:10A57000D20044004400A20044009400440044007F
:10A58000350101209842024638BF1A460292002C3B
:10A5900040F05081B80740F16E81002B40F04E82B0
:10A5A0001C46BBF1000FC0F20A827A0700F11A8242
:10A5B00007F00302022A00F0EA81CDE9004759467C
:10A5C0000A223046FFF7B8FE01352C78002C7FF4C4
:10A5D00079AF337B002B40F01C8105B0BDE8F08FD4
:10A5E0000D4611F8012B2D2A47F004077FF478AFB0
:10A5F00047F001076EE747F002076BE73046FFF7C9
:10A600007FFE5BE73268591CB16002F803A0D6E90F
:10A6100001239342FFF449AF3046FFF771FEB36860
:10A6200043E7D8F800301A1DC8F800206A781C6883
:10A630002E2A05F101057FF470AF6A78A2F130038C
:10A64000092B05F101054FF000033FF66AAF03EB5C
:10A65000830302EB430315F8012FA2F1300109290E
:10A66000A3F13003F3D95CE7D8F80020111DC8F836
:10A67000001011683046CDE900470A22FFF75CFE62
:10A680000135A2E7D8F800301A1DC8F8002017F0ED
:10A690000107D3F800B040F0F080BBF1000F03D009
:10A6A000584609F08DFB0746BC4240F24381002C1E
:10A6B00000F04081202205E0BC4200F03B81002CEC
:10A6C00000F03881B1683368481CB0605A54D6E94C
:10A6D0000130984204F1FF34EED33046FFF710FE0C
:10A6E0002022E9E7D8F80020131DC8F80030B3682D
:10A6F00031681768581C3022B060CA54D6E901236B
:10A70000934280F0EF803268581C7821B060D154B9
:10A71000D6E901329A4280F0E0800F2F03D93B4600
:10A720001B090F2BFCD84FF0805406E00F2C4FEA8A
:10A7300014137FF649AFB2681C46B7FBF4F319F85F
:10A7400003B0BBF10A0F04FB137754D03368511CDC
:10A75000B16003F802B0D6E901329A42E6D330463E
:10A76000FFF7CEFDE2E7D8F80020111DC8F8001071
:10A77000D2F800B08BEAEB72A2EBEB72092A7FF7FA
:10A7800000AFDFF8C8C2012011466329ACFB02E22A
:10A7900000F101004FEAD202F6DC9842024638BFCF
:10A7A0001A460292002C45D1F4E6D8F80020111D7B
:10A7B000C8F8001011683046CDE900471022FFF7B5
:10A7C000BBFD013501E7D8F800301A1DC8F800209C
:10A7D0001C78B3680A2C00F011813268591CB160F2
:10A7E000D454D6E901329A42FFF4EEAE3046FFF778
:10A7F00087FD0135E9E63368511CB16003F802A01A
:10A80000D6E901329A42A1D33046FFF779FDB2680A
:10A810009CE7304605B0BDE8F04FFFF771BDB36867
:10A820003168581CB060CA54D6E901329A42DDD270
:10A830000135CAE6BBF1000F59DB7A0757D4B807D8
:10A8400002D5002B3FF4ADAEF9073FF5AAAE94B1A7
:10A8500020220299A142BFF4A4AEB168481CB060A6
:10A8600030684254D6E90101814204F1FF3480F09E
:10A87000D480002CEDD1002493E69BF80030002B0F
:10A8800000F0E080B0685F46CBF101020A2B02EBDA
:10A89000070B3CD0411CB16031680B54D6E9013044
:10A8A000984226D217F8013F002BEFD15C457FF686
:10A8B0008BAE202702E05C453FF486AEB268336879
:10A8C000511CB1609F54D6E901329A4204F1FF3421
:10A8D000F1D33046FFF714FDEDE73046FFF710FDEA
:10A8E000B2681AE73046FFF70BFDB3680BE7013C8F
:10A8F000A5E730460292FFF703FD17F8013F002B52
:10A90000D4D0029AB0680A2B02EB070BC2D1411CCB
:10A91000B160316801F800A0D6E901108842B9D3CE
:10A920003046CDE90232FFF7EBFCDDE90232B068D8
:10A93000B0E770479BF80040002C3FF445AE0A2C6E
:10A94000B0680ED03368421CB2601C54D6E90130A6
:10A95000984214D21BF8014F002C3FF435AE0A2C5C
:10A96000F0D13368421CB26003F800A0D6E9013090
:10A970009842E7D33046FFF7C3FCB068E2E73046C1
:10A98000FFF7BEFC1BF8014F002CD8D11CE6002BB2
:10A990007FF413AE8CB130220299A142BFF40DAE08
:10A9A000B168481CB06030684254D6E90101814268
:10A9B00004F1FF343BD2002CEED10024FDE5B16858
:10A9C0004A1CB26032682D205054D6E901219142D0
:10A9D000CBF1000BFFF4ECAD30460393FFF790FC96
:10A9E000039BE5E5B1684A1CB26032682B205054E5
:10A9F000D6E901219142FFF4DBADEDE73268591C45
:10AA0000B16002F803A0D6E901239342FFF4E5AE5A
:10AA10003046FFF775FCB368DFE630460393FFF777
:10AA20006FFC039B2022002C7FF413AF23E73046FA
:10AA30000393FFF765FC039B3022BCE7F9073FF562
:10AA4000B0AD18E79B4631E7CC440300CDCCCCCC6D
:10AA50002DE9F04182B0002858D0002A68D0D0F803
:10AA600000E0BEF1000F68D01D4673B34768D7F809
:10AA70000480B3FBF8F708FB1737002F37D18F0797
:10AA80003AD112F0030F3CD1C768B94211D2334812
:10AA9000334C344B344A3549001BC00810240004A1
:10AAA00040F001000094FDF751F9204602B0BDE8E6
:10AAB000F08104694E1E3544A542E8D8DEF80C400A
:10AAC000A44602B0BDE8F04160472448244C254B21
:10AAD000274A2649001BC0080924000440F0010051
:10AAE0000094FDF733F9204602B0BDE8F0811B4821
:10AAF0001B4C1C4B1F4AECE71848194C194B1E4ABB
:10AB0000C9E71648164C174B1C4AC4E71348144CA7
:10AB1000144B1B4A1549001BC0080E24000440F0CA
:10AB200001000094FDF712F9204602B0BDE8F08163
:10AB30000A480B4C0B4B134AECE7094C0748094BEE
:10AB4000114A0A49001BC0080824000440F0010013
:10AB50000094FDF7FBF82046A8E700BF7C630300E4
:10AB60001C63030090460300E0450300E444030037
:10AB70002C45030078450300A4450300BC450300B1
:10AB8000DC4403007045030018450300F0B583B0B2
:10AB9000002843D0D0F800C0BCF1000F4ED03AB32B
:10ABA0004768D7F800E00EF1FF370F4231D1C76890
:10ABB000B94210D229482A4C2A4B2B4A2B49001B58
:10ABC000C0081024000440F001000094FDF7BEF816
:10ABD000204603B0F0BD04694D1E0EFB0255A54290
:10ABE000E8D8DCF81040A44603B0BDE8F040604768
:10ABF0001B4C1A481B4B1E4A1C49001BC008092449
:10AC0000000440F001000094FDF7A0F8204603B0D6
:10AC1000F0BD1248124C134B164ACFE7104C0F48A8
:10AC2000104B154A1149001BC0080E24000440F0C7
:10AC300001000094FDF78AF82046CAE7084C07484F
:10AC4000084B0E4A0949001BC0080824000440F0C4
:10AC500001000094FDF77AF82046BAE77C63030010
:10AC60001C630300A446030030460300E4440300D1
:10AC70002C45030008460300DC440300184503008C
:10AC800029DF704728DF7047034B187A0122B0FA9A
:10AC900080F05A7440097047103A002030B5394DA1
:10ACA0002B7A87B0002B39D0374B1C6802232B72CC
:10ACB0002379002B3DD0012B24D022689368C3B1A7
:10ACC0000023CDE9033302930093A3680593032384
:10ACD00001932379002B48D0012B07D1E3686169E8
:10ACE00004911B03022102938DF8001093686846BB
:10ACF00098470023254926482B726B60FFF7A0F97F
:10AD000007B030BDD4E903031844FFF7BBFF20B3FD
:10AD10001128D2D101232B7207B030BD1B491C482A
:10AD2000FFF75EF9184B044618600028BED1686032
:10AD3000E6E7D4E90520121AB2F5805F28BF4FF488
:10AD40008052D4E903139208012A38BF012201443A
:10AD50001844FFF795FF0028DAD12B7C002BCFD1C8
:10AD60000146022000F016F8CAE72069E1680123D5
:10AD7000CDE902018DF80030636904939368684659
:10AD80009847B6E7103A0020283A0020243A0020DD
:10AD9000003A0020831E012B3FD810B5334C237A94
:10ADA00086B0002B37D0022B31D103283AD0304B5C
:10ADB00000221B68E2601A79002A40D0012A26D1BD
:10ADC000D3E9042101328A421A6120D10020207285
:10ADD00019688A68BAB10022CDE903220292009272
:10ADE0009A68019005921A79002A35D0012A07D174
:10ADF000DA685B6904931303022202938DF8002042
:10AE00008B68684698471B491B48FFF719F9637C14
:10AE100023B9FFF743FF06B010BD704707F05CFA97
:10AE200006B010BDE3680133082B01D8E360EEE7FC
:10AE30000F4B00221B68E26022720D20C8E7D3E9A5
:10AE40000512881AB0F5805F94BF121802F580527F
:10AE500091429A61DBD1B9E7012218698DF800208F
:10AE6000DA685B690493CDE90202C9E7103A002071
:10AE7000283A0020243A0020003A002000F0FD0388
:10AE8000012B00D0704730B53B4DA0F10100B0FA66
:10AE900080F02B7A4009002287B028746A74002B56
:10AEA0004AD0364B1C6802232B722379002B4ED0DC
:10AEB000012B07D1D4E903031844FFF7E3FE48B39D
:10AEC00011281BD0226893687BB10023CDE903339E
:10AED00002930093A36805930323019323790BB393
:10AEE000012B0ED0936868469847002324492548D3
:10AEF0002B726B60FFF7A4F807B030BD01232B72F3
:10AF0000FAE7E368616904911B03022102938DF85B
:10AF10000010E7E72B7C002BEED101460220FFF763
:10AF200039FFE9E72069E16801238DF800306369A2
:10AF30000493CDE90201D5E711491248FFF750F813
:10AF40000E4B044618600028ADD16860D4E7D4E900
:10AF50000520121AB2F5805F28BF4FF48052D4E961
:10AF600003139208012A38BF012201441844FFF755
:10AF700087FE0028A4D1CDE7103A0020283A00200F
:10AF8000243A0020003A0020FFF75AB92DE9F04199
:10AF9000058A0331043D4E198046B6FBF5F6FFF7EE
:10AFA0006BF9A0B3F6B24FF48073013E0446C5803E
:10AFB000C0F8008083802BD00346002508E062792A
:10AFC000AE4202F1010262713860C0F800801FD009
:10AFD00040461F46FFF750F9013503460028EED1E1
:10AFE0006779791E17D02246013399421268FBD146
:10AFF000D2F800805FB12668002501E0344636684B
:10B00000214601354046FFF75FF9AF42F6D80024EC
:10B010002046BDE8F08120682146FFF755F9F6E7A4
:10B02000F8B546790146701E13D00A460023013355
:10B0300098421268FBD1176856B10D68002401E0F0
:10B0400029462D6801343846FFF73EF9A642F7D865
:10B05000F8BDBDE8F8400868FFF736B904300121B3
:10B06000FFF7B2B82DE9F041012104460430FFF7A3
:10B07000B9F810F0FF0301D0BDE8F0816779791EBF
:10B0800016D02246013399421268FBD1D2F80080D3
:10B09000002FF1D02668002501E0344636682146AD
:10B0A00001354046FFF710F9AF42F6D8BDE8F08110
:10B0B00020682146BDE8F041FFF706B92DE9F843C5
:10B0C0000546C6884079144606FB00F2043A04EBB4
:10B0D000030C1F1D624538BFD41ABE428846B7FB19
:10B0E000F6F106FB117002D801392D68FCD1371A30
:10B0F000A74228BF27469CB14FF000090430E41B4B
:10B1000028443A4608EB090108F05CFDA642B94420
:10B110002D6837464FF0000028BF2746002CEDD1A0
:10B12000BDE8F8832DE9F8430546C6884079144602
:10B1300006FB00F2043A04EB030C1F1D624538BF06
:10B14000D41ABE428846B7FBF6F106FB117002D84E
:10B1500001392D68FCD1371AA74228BF27469CB178
:10B160004FF0000904302918E41B3A4608EB0900A7
:10B1700008F028FDA642B9442D6837464FF000007C
:10B1800028BF2746002CEDD1BDE8F88341DF70478A
:10B19000064A074B10B5002414701C60BFF35F8F84
:10B1A0000449054800F042F8204610BD343A00201A
:10B1B000383A0020C44603002C3A002000B583B082
:10B1C00000230DF107008DF80730FDF783FCF1EE49
:10B1D000103A23F09F03E1EE103ABFF35F8F0B4B61
:10B1E0004022C3F884219DF80700FDF799FC07F081
:10B1F00083F828B920BF40BF20BF03B05DF804FB2F
:10B20000FFF7C4FF03B05DF804FB00BF00E100E0FE
:10B210008268002393608268136182685361826848
:10B22000D3608268536082681360704701600B6866
:10B2300043604A68934204BF00234360704700BFE5
:10B24000436843B1026891680B444360526893427B
:10B2500004BF00234360704770B544680646206809
:10B260000D4618B908E02468206828B1B36829465B
:10B2700098470028F7D120682860256070BD00BF7E
:10B280004368186808B102681A6070474368186814
:10B29000704700BF4368186818B908E003460068A3
:10B2A00028B18142FAD10A681A60012070477047BC
:10B2B000114910B4A1F5947205E052F83330984268
:10B2C00038BF21460CD28C1AE30F03EBE4035B106A
:10B2D000914202EBC304F0D808485DF8044B704774
:10B2E00002D904F10802EEE76068044B5DF8044BF4
:10B2F000002808BF18467047044C0300C84A0300E2
:10B3000010B4754B1B68082B1CD0744AD2F88830D7
:10B3100043F47003C2F88830BFF34F8FBFF36F8FD1
:10B320004FF01023D3F80022002AC0F2A380D3F8F4
:10B330000432002BC0F29E80694B6A4A1A605DF8A5
:10B34000044B70474FF080414FF080520020C1F80D
:10B350000C01654BC1F81001C1F83805D2F804148E
:10B36000C3F82015D2F80814C3F82415D2F80C1429
:10B37000C3F82815D2F81014C3F82C15D2F81414F9
:10B38000C3F83015D2F81814C3F83415D2F81C14C9
:10B39000C3F84015D2F82014C3F84415D2F8241489
:10B3A000C3F84815D2F82814C3F84C15D2F82C1459
:10B3B000C3F85015D2F83014C3F85415D2F8341429
:10B3C000C3F86015D2F83814C3F86415D2F83C04F9
:10B3D000C3F868054549D2F84004C3F86C0509680C
:10B3E000D2F84424C3F87025032937D8404B5B5C5E
:10B3F00013B1404B404A1A60404B5B5C63B1364B23
:10B400003F491B68394AFB20C1F81805082B116811
:10B410007FF47BAF032921D83A4B5B5C93B13A4868
:10B420003A4B2D4C02681B682468304922F00F0209
:10B4300003F00F031343082C096803607FF465AF22
:10B4400003290BD8324B5B5C43B1234B314A1B6859
:10B450004FF40071082B11607FF457AF4FF0804319
:10B46000D3F80024D2077FF550AF6FF00102C3F884
:10B4700000244AE7284A0123C2F80435D2F80034F0
:10B48000002BFBD04FF010231221234AC3F80012E7
:10B49000D2F80034002BFBD04FF0102312211E4AAB
:10B4A000C3F80412D2F80034002BFBD000231A4951
:10B4B000C2F80435D1F80034002BFBD0BFF34F8F16
:10B4C0000649164BCA6802F4E0621343CB60BFF32F
:10B4D0004F8F00BFFDE700BF3001001000ED00E01E
:10B4E000242C00200090D00300C000403401001044
:10B4F000044C03008C56004048810300044C0300B8
:10B5000000F00040044C0300E40E0040580200101C
:10B51000044C03004096024000E001400400FA059C
:10B52000074B1B5C1F2B8ABF064A4FF0A04203F05B
:10B530001F03D2F80405D840C04300F00100704753
:10B54000084C030000030050064B1A5C1F2A86BFFC
:10B55000054902F01F024FF0A04101239340C1F8BA
:10B560000C357047084C030000030050064B1A5C72
:10B570001F2A86BF054902F01F024FF0A041012398
:10B580009340C1F808357047084C03000003005091
:10B5900030B44FF0A043094940254FF480744FF474
:10B5A00000704FF48052C3F80855C3F80845C1F83D
:10B5B0000805C3F8082530BC704700BF00030050E1
:10B5C00030B44FF0A043094940254FF480744FF444
:10B5D00000704FF48052C3F80C55C3F80C45C1F805
:10B5E0000C05C3F80C2530BC704700BF00030050A9
:10B5F0000A4B185C1F288ABF09494FF0A04100F090
:10B600001F00D1F804350122824022EA03001340D2
:10B61000C1F80805C1F80C35704700BF084C03009D
:10B6200000030050263818BF4FF0FF30704700BFAE
:10B63000C30706D4830742BF2E4B0C22C3F818273A
:10B64000704770B44FF08043D3F84036DA0722D405
:10B650004FF0A0432749032240264FF480754FF452
:10B660000074C3F81827C3F82027C1F82427C3F8AB
:10B670003027C3F808654FF48052C3F80855C1F865
:10B6800008458107C3F8082503D51A4B0C22C3F8D7
:10B69000182770BC70474FF01023D3F8043303F021
:10B6A0000703072BD4D1144B0122C3F80425D3F888
:10B6B0000024002AFBD04FF010210020D1F80423F1
:10B6C0000D4C22F0070242F00402C1F80423C3F833
:10B6D0000405D4F80034002BFBD0BFF34F8F07498B
:10B6E000074BCA6802F4E0621343CB60BFF34F8F8D
:10B6F00000BFFDE70003005000E0014000ED00E066
:10B700000400FA0510B568B90E4CA36801226270F6
:10B710003BB1D3E900230020A2609847A368002B27
:10B72000F7D110BD0128FCD1064C2369A070002B75
:10B73000F7D0D3E900230120226198472369002B29
:10B74000F7D110BD3C3A002070B910B5074CA36882
:10B75000012262703BB1D3E900230020A260984728
:10B76000A368002BF7D110BD704700BF3C3A002002
:10B7700030B5012883B004D0032821D0B0B103B084
:10B7800030BD294C00230DF107008DF80730FDF77F
:10B79000A1F923786BB3E3689DF807000133012218
:10B7A000E360A270FDF7BCF903B030BD1F4B01226E
:10B7B000C3F88020BFF34F8FBFF36F8F03B030BD4E
:10B7C000194C00F0BDF800230DF107008DF807308B
:10B7D000FDF780F9E368013BE360E3681BB9144BB4
:10B7E000D3F80054C5B19DF80700FDF799F903B0EF
:10B7F00030BD10486360A3602361E36000F094F8FB
:10B8000006F07AFD60B10A4A01232370D2F80024C1
:10B81000002AC0D0A370BEE700F0A4F8A570E2E74C
:10B8200000F08EF8EFE700BF3C3A002000E100E0B6
:10B830000000014005B7020030B585B004784568C6
:10B840008DF80040D0E90240064A074B039053F8B8
:10B850002130019552F821108DF80840684698472C
:10B8600005B030BD503A0020583A002030B585B0C0
:10B87000047845688DF80040D0E90240064A074B3D
:10B88000039053F82130019552F821108DF80840AB
:10B890006846984705B030BD503A0020583A00201D
:10B8A0002DE9F047DFF8748090F800E04B7F08F84E
:10B8B0000E300D46074616460FCD88B06C460FC4B5
:10B8C00095E80F003D78DFF85890DFF858C018F879
:10B8D000055049F82E6084E80F004CF82E00CDF892
:10B8E00010E05DB1002E0B4A694607F1040008BF65
:10B8F000324601F08FF808B0BDE8F087002E064A06
:10B90000694607F10C0008BF324600F0E9FD08B0B7
:10B91000BDE8F08739B802006DB80200704400201D
:10B92000583A0020503A0020044A137923B90121E3
:10B93000106091801846704785207047603A00205B
:10B94000074B1A68D20704D4C02283F800230122CF
:10B950001A604FF080430122C3F81825704700BFDA
:10B9600000E100E010B40B4B0B494FF08042002087
:10B970000224C2F8084383B018601B6801930123B6
:10B9800001980B60D2F81834DB03FBD403B05DF8E8
:10B99000044B7047040100400C00004010B5174BE9
:10B9A0001A6882B062B10021154A19601B6850798B
:10B9B00000934FF080410123009CC1F8083398B1F7
:10B9C000104B1A68BAB100221A601B6801934FF03D
:10B9D000804202210A4B0198C2F808131B6801201B
:10B9E00002B0BDE810401847116853718847054BF5
:10B9F0001A68002AE7D102B010BD00BF0001004064
:10BA0000603A002004010040F0B5264C94F86A30FA
:10BA100083B0002B42D14FF6FF70FF255A09012A4F
:10BA20000CBF02464FF0FF3203F01F01CA40D2079D
:10BA300048BFE21803F1010348BF82F83050302BB1
:10BA4000ECD14FF0FF334FF0FF364FF0FF370622B7
:10BA5000002115482366C4E90233C4E90433C4E96C
:10BA60000633C4E90833C4E90A33C4E9006708F0BF
:10BA700043F90E4BC02283F8062340221A600C4B78
:10BA80000C4A002018601B68019301214FF000430D
:10BA9000019D84F86A10C2F8043300E0082003B066
:10BAA000F0BD00BF683A0020CC3A002000E100E081
:10BAB0007C61004000600040034B93F86A0000384E
:10BAC00018BF0120704700BF683A0020F0B4754BE2
:10BAD0001D1895F93040002C61DA8C78A707C4F363
:10BAE000400C53D41C6A013400F0D5805C6A0134E8
:10BAF00000F0CA800C260A2453F82450013552D095
:10BB0000651CB5423FD253F82570013700F0B48070
:10BB1000A51CB54237D253F82570013700F0AC8030
:10BB2000E71CB7422FD253F8275001353AD0271DD2
:10BB3000B74228D253F82750013533D0671DB7429A
:10BB400021D253F8275001352CD0A71DB7421AD265
:10BB500053F82750013525D0E71DB74213D253F8CB
:10BB6000275001351ED004F10807B7420BD253F815
:10BB70002750013516D00934B44204D2DC6A0134AE
:10BB800008BF0B240FD00420F0BC70471C680134A0
:10BB900074D05C6801346DD008260224ACE708201C
:10BBA000F0BC70473C461E1865B243F8242086F866
:10BBB0003050BCF1000F02D11C4484F858008A7840
:10BBC00054071AD4D60744D41F284C7887BF364E62
:10BBD00000F01F0202464FF0A04602F5E072A400FA
:10BBE00046F82240314EC40800F0070C375D0122B0
:10BBF00002FA0CF23A4332558A7812F002021CD053
:10BC0000AB0003F1804303F5C0430978D3F8104536
:10BC100024F44F3424F44074C3F81045020209049C
:10BC2000D3F8100501F4403102F47C520A43024378
:10BC3000C3F810250020F0BC7047083D2B4408785D
:10BC400093F8601041EA801183F860101046F0BC50
:10BC500070471F2887BF144A00F01F0404464FF0A6
:10BC6000A04202EB8402D2F8004724F00204C2F89A
:10BC70000047B7E7012496E72C4694E7002485F8AF
:10BC800030401A6025469AE7092685F830605A62E6
:10BC90003446354690E7082685F830601A62344607
:10BCA000354689E7683A002000030050CC3A00206E
:10BCB00070B4324C251883B095F93030072B22DD53
:10BCC000234493F858309B09032B46D0012B0CBF1B
:10BCD0004FF400324FF440321F288ABF284B4FF0F8
:10BCE000A04300F01F0003EB8000D0F8003723F4DE
:10BCF0004033C0F80037D0F800371A43C0F80027A7
:10BD000003B070BC7047DAB2072AF9D8980000F186
:10BD1000804000F5C04003F140029200D0F8106569
:10BD200092B202F1804202F5C04246F00106C0F82C
:10BD300010650020106012680192019A0029DFD07E
:10BD400095F9302054F82220002AD9D00D4901223B
:10BD500002FA03F3C1F80433D2E71F288ABF084A66
:10BD60004FF0A04200F01F03D2F8102598BF034601
:10BD7000DA4002F0010202321204ADE7683A002014
:10BD800000030050006000401F288ABF054B4FF0A1
:10BD9000A04300F01F00D3F8103523FA00F000F0A4
:10BDA00001007047000300502DE9F047002384B0E4
:10BDB000CDE90233D54A1168012900F040821E46C0
:10BDC000D34B1A68012A00F02C82D24B1A68012A40
:10BDD00000F01982D04B1A68012A00F00682CF4B7E
:10BDE0001A68012A00F0F381CD4B1A68012A00F08D
:10BDF000E081CC4B1A68012A00F0CD81CA4B1A6849
:10BE0000012A00F0A181C94B1A68012A20D0E6B1AD
:10BE1000C74F00240125A30003F18043354203F5F9
:10BE2000C0434FEA45050BD0D3F8100557F824203E
:10BE3000D3F81015C0F30520C1F3014102B19047BA
:10BE40000134082CE7D1002E17DB04B0BDE8F087E1
:10BE500000221A601B6801934FF0A042019BD2F8A8
:10BE60002015B44B0291C2F82015D3F82025039277
:10BE7000C3F82025002E40F08B81AD4CAD4E01253E
:10BE80004FF0A04794F96000431C46D0C0F3C202B3
:10BE900004AB1A4400F0070312F8082C05FA03F368
:10BEA0001A42C1B200F03F0037D01F2800F22581AE
:10BEB00002464FF0A04909EB820304EB000ED3F8D1
:10BEC00000C7D3F8008728F44038C3F80087CCF3C4
:10BED000014C9EF93080D3F800E754F82880BCF17B
:10BEE000020F0CBF4FF4403A4FF4003A05FA02F249
:10BEF0004EEA0A0EC3F800E7C9F82025B8F1000F92
:10BF00000BD08909032900F0B381BCF1020F00F0C6
:10BF1000BE81BCF1030F00F0A88194F96100411CBF
:10BF200046D0C0F3C20204AB1A4400F0070312F873
:10BF3000082C05FA03F31A42C1B200F03F0037D0D3
:10BF40001F2800F2DE8002464FF0A04909EB820371
:10BF500004EB000ED3F800C7D3F8008728F440386C
:10BF6000C3F80087CCF3014C9EF93080D3F800E78A
:10BF700054F82880BCF1020F0CBF4FF4403A4FF444
:10BF8000003A05FA02F24EEA0A0EC3F800E7C9F8D1
:10BF90002025B8F1000F0BD08909032900F06D812D
:10BFA000BCF1020F00F06B81BCF1030F00F0628165
:10BFB00094F96200421C46D0C0F3C20204AB1A449A
:10BFC00000F0070312F8082C05FA03F31A42C1B275
:10BFD00000F03F0037D01F2800F2AE8002464FF03D
:10BFE000A04909EB820304EB000ED3F800C7D3F895
:10BFF00000879EF930E028F44038C3F80087CCF37E
:10C00000014CD3F800A754F82E80BCF1020F0CBFEE
:10C010004FF4403E4FF4003E05FA02F24EEA0A0E9B
:10C02000C3F800E7C9F82025B8F1000F0BD0890943
:10C03000032900F01381BCF1020F00F02481BCF150
:10C04000030F00F0088194F96300431C45D0C0F34E
:10C05000C20204AB1A4400F0070312F8082C05FAD8
:10C0600003F31A42C1B200F03F0036D01F2867D850
:10C0700002464FF0A04909EB820304EB000ED3F80F
:10C0800000C7D3F800879EF930E028F44038C3F8A1
:10C090000087CCF3014CD3F800A754F82E80BCF1F4
:10C0A000020F0CBF4FF4403E4FF4003E05FA02F27F
:10C0B0004EEA0A0EC3F800E7C9F82025B8F1000FD0
:10C0C0000BD08909032900F0CE80BCF1020F00F0EB
:10C0D000E280BCF1030F00F0C380D7F82025029264
:10C0E000C7F82025D6F820350393C6F8203513432A
:10C0F0007FF4C8AE04B0BDE8F08701F01F02B1467E
:10C10000D9E601F01F02B14620E700BF0061004000
:10C1100004610040086100400C6100401061004073
:10C1200014610040186100401C6100407C610040C7
:10C13000683A00200003005001F01F02B14650E7AA
:10C1400001F01F02B14696E7554AD2F804231206C1
:10C150007FF559AE00221A6019680091196E009897
:10C16000012903F1600346F080067FF450AE1A60A7
:10C170001B6801934FF0A042019BD2F82015494B58
:10C180000291C2F82015D3F820250392C3F8202588
:10C1900046F000463CE6424AD2F8042351067FF5B9
:10C1A0002DAE00221A601B680093009B46F04006EB
:10C1B00024E63B4AD2F8042390067FF51AAE00220B
:10C1C0001A601B680093009B46F0200611E6344A73
:10C1D000D2F80423D4067FF507AE00221A601B684C
:10C1E0000093009B46F01006FEE52D4AD2F804238A
:10C1F00015077FF5F4AD00221A601B680093009BC1
:10C2000046F00806EBE5264AD2F8042357077FF5E7
:10C21000E1AD00221A601B680093009B46F0040603
:10C22000D8E51F4AD2F8042392077FF5CEAD00224D
:10C230001A601B680093009B46F00206C5E518498A
:10C24000D1F8046316F001063FF4BAAD1360136829
:10C250000093009BB4E502297FF4F5AEC047F2E6F7
:10C2600002297FF43AAFC04737E702297FF455AE81
:10C27000C04752E602297FF49BAEC04798E60129E9
:10C280007FF496AEF9E701297FF4DDAEE6E70129F8
:10C290007FF443AEECE701297FF41FAFE3E700BF73
:10C2A0000060004000030050014B1B68184700BFAE
:10C2B000D43A0020114B98421DD130B583B00023F1
:10C2C0000DF107008DF807300D46FCF703FC0C4B11
:10C2D0001C794CB99DF807001D6001221A71FCF70A
:10C2E0001FFC204603B030BD9DF80700FCF718FC8A
:10C2F000112003B030BD0020704700BF0020004077
:10C30000D43A0020034B984203D1034B00221A6019
:10C310001A71704700200040D43A002030B56E4AB0
:10C32000D2F8043399058BB068D5D2F82431002BAC
:10C3300064D00023C2F82431D2F8243101934FF4A1
:10C340000171664B0198C2F8081393F8291009B9D6
:10C3500001215160604902228DF81820D1F8802413
:10C36000C1F880249869D968099200240025CDE994
:10C370000710C3E90645D3E9001206A89047564ABC
:10C38000D2F81C31C3B1554B5869196A88426AD931
:10C3900093F8281001F0FF00002964D1C2F81C01B5
:10C3A000D2F81C11039103999C68186A196A205CE1
:10C3B00001311962C2F81C05474AD2F84431DBB199
:10C3C0000021464BC2F84411D2F8440193F82910D9
:10C3D0000090009809B1012111609A6962B1586A10
:10C3E000D96800229A610122CDE907108DF8182042
:10C3F00006A8D3E9001290470BB030BD364AD2F8F8
:10C4000004335B07BBD5D2F80831002BB7D0334BD0
:10C41000996900293ED00021C2F80811D2F808110C
:10C4200004910499D868596AD2F8182542545A6A76
:10C43000996901325A625A6A8A42A0D1DA69002A9D
:10C4400031D0DD685C6A18699A6101210022D860E8
:10C45000DA615A628DF81810CDE90754D3E9001259
:10C4600006A890478BE71C4A0021C2F81C11D2F89D
:10C470001C210292029A5A69002A9DD058699A6832
:10C480008DF8181008905961079206A8D3E9001298
:10C49000904791E7C2F80811D2F808010590059875
:10C4A000D2F81825C7E793F8292012B90A4A0121C2
:10C4B0005160094A4FF40171C2F80813596ADA68E9
:10C4C00008910024012007928DF81800D3E900128A
:10C4D0009C6106A8904752E700200040E03A002007
:10C4E0002DE9F041DFF8E48106792C2303FB068374
:10C4F00082B093F82A30002B40F09E8005460C460F
:10C5000000686D491746FFF7D5FE002840F090807F
:10C510002368591C19D01F2B4FF001028ABF6749AD
:10C520004FF0A04103F01F0302FA03F3C1F80835EE
:10C5300023681F2B86BF03F01F03604A4FF0A04201
:10C5400003F5E073032142F8231063685A1C0BD0F3
:10C550001F2B86BF03F01F03584A4FF0A04203F57C
:10C56000E073002142F823102B68A269C3F8242548
:10C57000217D637D2A680B43C2F86C35D4E9001233
:10C580002B68C3F81425C3F80C15237D012B5FD04D
:10C590002C2303FB06F308EB03025760226948F8DB
:10C5A00003202A6897B30021237FC2F81C11D2F818
:10C5B0001C2100922A68009FC2F84411D2F844114D
:10C5C0002A6801913E4C0199C2F804432A6842F35B
:10C5D000073100294FEA123232DB01F1604101F5E7
:10C5E00061415B01DBB281F800332A6842F3073313
:10C5F000002B4FEA123109DB324C01225B0901F0BA
:10C600001F0102FA01F144F823102A682C2303FBCE
:10C610000686012400230421C2F80015C6E906336A
:10C6200086F82A4086F82930736102B0BDE8F081AF
:10C63000112002B0BDE8F081082002B0BDE8F08111
:10C64000214902F00F025B011144DBB20B76CCE70B
:10C65000A368591C0BD01F2B86BF03F01F0317497B
:10C660004FF0A04103F5E073002241F82320E36876
:10C670005A1C1AD01F2B8ABF10494FF0A04103F05B
:10C680001F03012202FA03F3C1F80835E3681F2BE8
:10C6900088BF03F01F0303F5E0738CBF07494FF019
:10C6A000A041032241F82320E3682A68A168C2F868
:10C6B0000835C2F810156BE71DC3020000030050D7
:10C6C0008000020000E100E0FCEC00E0E03A002025
:10C6D000F8B53E4F047902682C2303FB0473002154
:10C6E0005B68C2F80015C3B10368394AC3F8082370
:10C6F000036843F30732002A4FEA13310EDB520975
:10C70000344D2032012301F01F0103FA01F145F8F5
:10C710002210BFF34F8FBFF36F8F0368D3F80C6500
:10C72000D3F81455D3F80825D3F810154FF0FF3C73
:10C73000C3F814C5C3F80CC503686645C3F808C53B
:10C74000C3F810C50CD01F2E86BF06F01F06224B63
:10C750004FF0A04306F5E0764FF0020C43F826C0F8
:10C760006E1C0BD01F2D86BF05F01F051A4B4FF016
:10C77000A04305F5E075022643F825604D1C0BD05B
:10C780001F2986BF01F01F01134B4FF0A04301F595
:10C79000E071022543F82150531C0BD01F2A86BF9D
:10C7A00002F01F020C4B4FF0A04302F5E072022191
:10C7B00043F822100068FFF7A5FD2C2303FB047447
:10C7C000002384F82A306360F8BD00BFE03A0020FF
:10C7D0008402020000E100E0000300502DE9F04176
:10C7E000314E05792C2303FB05630446586984B058
:10C7F00000284CD15A619960186283F82800226899
:10C80000C2F81C01D2F81C11226802910121029F7A
:10C8100091602268D3F808C0C2F81C01D2F81C113C
:10C82000019101991F6A196A1CF807700131196298
:10C83000C2F81C755A6812B104B0BDE8F0815F6996
:10C840001A6A216897421BD9864602E093F828208D
:10C850000ABBD1F81C21002AF8D0C1F81CE1D1F89C
:10C860001C210392039AD3F820801A6A1CF80880CE
:10C8700001321A62C1F81C851A6A9742E9D8216808
:10C88000D1F81C31002BFBD00123CB6004E0112038
:10C8900004B0BDE8F0810F202C2303FB05650023C5
:10C8A0006B6104B0BDE8F081E03A002030B5574B31
:10C8B000D3F824218BB0002A75D00022C3F824219C
:10C8C000D3F82421049202228DF81820049AD3F878
:10C8D00080144F4AC3F880140991D3F83C15D368EB
:10C8E0000891002400250793C2E9064511685368A2
:10C8F00006A89847454BD3F8442152B10021444A39
:10C90000C3F84411D3F844019169039003980029B6
:10C9100038D13E4BD3F820215AB10021C3F8201161
:10C92000D3F8202102920120394A029CD860506934
:10C93000D8B9364BD3F85821AAB10021C3F8581101
:10C94000D3F85801324A01900198506958B1D3F890
:10C950004C05936808908DF818105161079306A84C
:10C96000D2E9001398470BB030BDD3F84C0593685B
:10C9700008908DF818105161079306A8D2E90013AA
:10C980009847D6E7D3F83C35D168089300240025B2
:10C99000012307918DF81830C2E90645D2E900134A
:10C9A00006A89847B5E7D3F810110029A2D0C3F81C
:10C9B0001021D3F810111648059105998469D3F810
:10C9C0003C15A14296D1C469A4B1D3F80052846148
:10C9D00025F02005C3F80052D0E90343C2610122CB
:10C9E0000891C3600168436807948DF8182006A871
:10C9F00098477FE7C26884610123CDE907218DF85C
:10CA00001830D0E9001306A8984773E700200040CB
:10CA1000103B00202DE9F0430779824E07EBC70356
:10CA200006EB830387B093F82030002B40F0B980E9
:10CA300004460D4600687C499046FFF73BFC002801
:10CA400040F0AB802B68591C4FEAC70919D01F2B47
:10CA50004FF001028ABF75494FF0A04103F01F0358
:10CA600002FA03F3C1F808352B681F2B86BF03F0C9
:10CA70001F036E4A4FF0A04203F5E073032142F812
:10CA800023106B685A1C0BD01F2B86BF03F01F03AB
:10CA9000664A4FF0A04203F5E073002142F82310EC
:10CAA0002368AA69C3F82425297D6A7D23680A437F
:10CAB000C3F86C25D5E900312268C2F80C35C2F8FC
:10CAC00014152B7D012B78D009EB070206EB8203AE
:10CAD000C3F804802B6946F82230B8F1000F4BD020
